:1000000000000420CD030000F9030000F903000004
:10001000F9030000F9030000F9030000F9030000F0
:10002000F9030000F9030000F9030000F9030000E0
:10003000F9030000F80300001FAD000011BB000031
:10004000F9030000F9030000F9030000F9030000C0
:10005000F9030000F9030000F9030000F9030000B0
:10006000F9030000F90300008DBE0000B505000093
:10007000F9030000F9030000F9030000F903000090
:10008000F9030000F9030000A5BE0000F903000019
:10009000F9030000F9030000F9030000F903000070
:1000A000F9030000F9030000F9030000F903000060
:1000B000F9030000F903000077BA0000F90300001B
:1000C000F9030000F9030000F9030000F903000040
:1000D000F9030000F9030000F9030000F903000030
:1000E000F9030000F9030000F9030000F903000020
:1000F000F9030000F9030000F9030000F903000010
:10010000F9030000F9030000F903000010B5054CE5
:10011000237833B9044B13B10448AFF300800123B3
:10012000237010BD3801002000000000780301009A
:1001300008B5034B1BB103490348AFF3008008BD6A
:10014000000000003C01002078030100154B002B4B
:1001500008BF134B9D46A3F5803A00218B460F46FE
:100160001348144A121A0CF02CFC0F4B002B00D031
:1001700098470E4B002B00D0984700200021040028
:100180000D000D48002802D00C48AFF300800CF0A1
:10019000E9FB200029000CF02DF80CF0CFFB00BF8C
:1001A0000000080000000420000000000000000023
:1001B00038010020C0A10020000000000000000065
:1001C00080B582B000AF0121104803F0A9FB0121E6
:1001D0000F4803F0A5FB00237B600FE00D4A7B680E
:1001E00012F833000B4A7B68DB0013445968002384
:1001F000042205F01DFC7B6801337B607B68012BCA
:10020000ECDD002318460837BD4680BD404105009F
:1002100000350A0024CA000080B582B000AF00F0AB
:10022000EDF878600A4B1B68094A43F0807313604D
:10023000084B00221A60084B1B68074A43F0010371
:100240001360786802F076FF00BF0837BD4680BDB6
:10025000FCED00E0041000E0001000E080B483B08A
:1002600000AF054B1B687B607B6818460C37BD46AA
:100270005DF8047B704700BF041000E0B0B586B0A5
:1002800000AF786000F0BAF803464FF00004C7E909
:1002900004347B681C464FF00005D7E904010B4A83
:1002A0004FF000030CF0CAF902460B4620462946DF
:1002B0000CF0C4F903460C46C7E90234D7E902340E
:1002C000184621461837BD46B0BD00BF40420F005A
:1002D00080B400AF044BDB6C1B0EDBB21846BD468E
:1002E0005DF8047B704700BFB081E00F80B582B03D
:1002F00000AF164B01225A64FFF7EAFF0346FB7179
:10030000FB79002B0CD1124B4AF6E8521A60114BC4
:100310001B68104A43F0040313600D4B00221A605F
:10032000FB79012B05D80C4B1B680B4A43F4005397
:1003300013600A4B1B6A23F44413084A43F48813DE
:10034000136200BF0837BD4680BD00BF00000E40ED
:1003500090310E4098310E4064310E4000400E4006
:1003600080B584B000AF1123FB60FFF7BFFF1048DA
:1003700004F01EFE0521F86803F02EFD01210D4852
:1003800003F0CEFA0123FB720323BB720A4B7B609E
:10039000FB7A00220121184603F054FFBB7A19466C
:1003A000786803F019FD00BF1037BD4680BD00BF5F
:1003B00034CA000000250A000500240080B400AF04
:1003C00000BFBD465DF8047B7047000006488047CB
:1003D0000649074A074B9A42BEBF51F8040B42F840
:1003E000040BF8E7FFF7B2FEF104000084030100FC
:1003F0000000002038010020FEE700BF80B582B079
:1004000000AF00F025F878600A4BD3F808311B0ADA
:10041000C3F308033B603B6801337A68B2FBF3F334
:100420007B60054A7B6813607B6818460837BD46C9
:1004300080BD00BF00400E400800002080B400AF27
:10044000024B1846BD465DF8047B7047005A6202B5
:1004500080B483B000AF1C4BD3F8943003F0070393
:10046000023B032B1BD801A252F823F08D0400009D
:10047000850400007D04000095040000134B1B68F8
:100480007B6010E04FF400437B600CE0104B1B6876
:100490007B6008E00F4B1B685B087B6003E00D4B43
:1004A0001B687B6000BF084BD3F800311B0A03F0C8
:1004B0001F0301337A68B2FBF3F318460C37BD46CD
:1004C0005DF8047B704700BF00400E400400002030
:1004D000000000200C00002080B400AF034B1B681C
:1004E0001846BD465DF8047B704700BF0000002041
:1004F00080B400AF074B084A9A60064BD3F88830A7
:10050000044A43F47003C2F8883000BFBD465DF86A
:10051000047B704700ED00E00000000080B400AFF5
:100520004FF400431846BD465DF8047B704780B425
:1005300000AF4FF47A731846BD465DF8047B7047F0
:1005400080B400AF034B1B681846BD465DF8047BC2
:10055000704700BF0400002080B483B000AF0346A2
:10056000FB7197F90730002B0BDBFB7903F01F02BF
:10057000074997F907305B09012000FA02F241F8B8
:10058000232000BF0C37BD465DF8047B704700BFD9
:1005900000E100E080B400AF054B1B69044A23F082
:1005A0000403136130BF00BFBD465DF8047B704794
:1005B00000ED00E080B483B000AF174B02225A6018
:1005C000164B02225A60144B01225A61134B5B6A8C
:1005D0007B60134B1B78DBB21946124A7B6842F8EA
:1005E00021300F4B1B78DBB21A460F4B53F82230E9
:1005F0007A689A4207D90A4B1B78DBB219460A4A35
:100600007B6842F82130094B01221A7000BF0C3779
:10061000BD465DF8047B70470080014000840140C6
:1006200054010020580100206001002055010020E5
:1006300080B485B000AF0346FB71FB790D4A52F8D8
:100640002330FB60FB790B4A52F823309B08FA6891
:10065000D31AFB60FB79084A52F82330FA689A42B1
:1006600001D9012300E0002318461437BD465DF888
:10067000047B7047600100205801002080B582B0E3
:1006800000AF0346FB71FB7919464FF0804002F042
:1006900019FE0F4B00225A620E4B00225A620E4B7B
:1006A00000221A700A4B01225A600A4B01225A603A
:1006B00001E0FFF76FFF084B1B78DBB283F001030B
:1006C000DBB2002BF5D100BF0837BD4680BD00BFAF
:1006D00000800140008401405501002080B500AF3A
:1006E0004FF0804002F030FE0F4B00221A700FE0F6
:1006F0000D4B1B78DBB21A460C4B9B5C1846FFF780
:10070000BDFF094B1B78DBB20133DAB2064B1A701E
:10071000054B1B78DBB2012BEAD94FF0804002F089
:10072000F3FD00BF80BD00BF5401002044CA00009B
:10073000B0B586B000AF224B3C461D460FCD0FC46E
:1007400095E8030084E8030001211E4803F0E8F85F
:1007500001211D4803F0E4F801211C4803F0E0F8F2
:1007600001211B4803F0DCF801211A4803F0D8F8F6
:10077000194B4FF010621A60174B0A22DA61164BC0
:1007800001229A61144B00225A62144B144A1A60D7
:10079000124B4FF6FF72DA61104B124A1A67124B76
:1007A000124A1A653B4619464FF0804002F02CFD74
:1007B0000B20FFF7D1FE00BF1837BD46B0BD00BF0C
:1007C00048CA000040410500000204000012040075
:1007D00000A2040000450A0000800140008401409E
:1007E0000000010A0100002A00600E400003100012
:1007F00080B500AF044801F01BF9044801F018F976
:1008000000F07CF900BF80BD60CA000090CA000003
:1008100098B500AF094802F049FC0446074802F0C9
:1008200045FC0146064B074A204600F0ADFD4FF05F
:10083000005000F0E7FD00BF98BD00BF207B002006
:10084000F107000048CB0000F0B585B002AF0023EF
:100850007B6035E01F497A6813469B0013449B0078
:100860000B4418681B497A6813469B0013449B008D
:100870000B4404331C6817497A6813469B001344E1
:100880009B000B4408331D6812497A6813469B008D
:1008900013449B000B440C331B681E460D497A68B9
:1008A00013469B0013449B000B4410331B680093BA
:1008B00033462A46214600F0B7F87B6801337B6057
:1008C000054B1B687A689A42C4D300BF0C37BD46FB
:1008D000F0BD00BF68010020E803002090B585B09E
:1008E00000AF02F0D8FBF860F868FFF7C7FCC7E973
:1008F0000001D7E90034184621461437BD4690BDA3
:1009000080B582B000AF786005F0FAFE0346002B98
:1009100002D1786801F074F900BF0837BD4680BD88
:1009200080B582B000AF786005F0EAFE0346002B88
:1009300002D1786801F024F900BF0837BD4680BDB8
:1009400080B582B000AF786005F0DAFE0346002B78
:1009500003D10421786801F093F900BF0837BD4640
:1009600080BD000080B586B002AFF860B9607A60E3
:100970003B6005F0C5FE0346002B4BD1274B1B689F
:100980001F2B03D9264801F001FB43E0234B1A68D3
:10099000244913469B0013449B000B44FA681A60D9
:1009A0001E4B1A681F4913469B0013449B000B44BF
:1009B0000433BA681A60194B1A681A4913469B0027
:1009C00013449B000B4408337A681A60134B1A686F
:1009D000144913469B0013449B000B440C333A68A4
:1009E0001A600E4B1A680F4913469B0013449B0074
:1009F0000B441033BA691A60084B1B680133074A6D
:100A000013603A68BB69009313467A68B968F8685E
:100A100000F00AF81037BD4680BD00BFE803002093
:100A2000A4CA00006801002080B58AB000AFF86059
:100A3000B9607A603B6007F1140314220021184664
:100A40000BF0BFFFFB687B61BB68BB617B68FB6130
:100A50003B683B623B6B7B6207F11403184600F076
:100A6000F1FE00BF2837BD4680BD000080B584B0D0
:100A700000AFF860B9607A607968B86801F05CF935
:100A8000B86801F09DF903461946F86800F0E4FCE7
:100A9000174B1B68FF2B03D9164801F077FA24E0A7
:100AA000134B1A68144913465B0013449B000B4414
:100AB000BA681A600E4B1A680F4913465B0013445C
:100AC0009B000B4404337A681A60094B1A680A4980
:100AD00013465B0013449B000B44083300221A604A
:100AE000034B1B680133024A13601037BD4680BDBB
:100AF000EC0F0020F4CA0000EC03002080B582B0A7
:100B000000AF00237B602BE01A497A6813465B0034
:100B100013449B000B4408331B68002B1DD115495F
:100B20007A6813465B0013449B000B441868114914
:100B30007A6813465B0013449B000B4404331B6824
:100B4000194601F0F9F80B497A6813465B00134423
:100B50009B000B44083301221A607B6801337B60E1
:100B6000054B1B687A689A42CED300BF0837BD4652
:100B700080BD00BFEC030020EC0F002080B582B0E8
:100B800000AF224B7B607B6802221A617B680222E5
:100B90005A617B681E4A9A617B681E4ADA617B68EB
:100BA0004FF480621A627B6800229A627B6800229E
:100BB0005A627B680022DA627B68154A9A647B6815
:100BC000154ADA647B6810221A657B6800229A65F0
:100BD0007B6800225A657B680022DA657B680733F0
:100BE0000E4918460BF0F5FEBFF35F8F7B680C498A
:100BF00018460BF0EEFEBFF35F8F7B6820229A71E0
:100C0000BFF35F8F00BF0837BD4680BD387B002033
:100C100050CB0000F00F0020F01300205CCB000050
:100C200060CB000080B58CB000AFF860B9607A602E
:100C30003E4B3B623B6A1B78DBB2002B01D1FFF7D6
:100C40009DFFFA6813465B001344DB004833374AC4
:100C50001344FB61BB687B62FB691B69BB62FB6978
:100C6000DB68BB610023FB62BA6ABB699A422BD97D
:100C7000FB699A68BB6AD31A7B617A697B68934285
:100C800028BF13467B61FB695A68BB6A13443B610A
:100C90007A693969786A0BF089FEFA6A7B691344CC
:100CA000FB627A6A7B6913447B627A687B69D31A38
:100CB0007B60BA6A7B691344BB62FB699B68BA6A52
:100CC0009A4201D10023BB62BA69BB6AD31A7B6125
:100CD0007A697B68934228BF13467B617B69002B4E
:100CE00019D0FB695A68BB6A13443B617A69396958
:100CF000786A0BF05BFEFA6A7B691344FB627A6ADE
:100D00007B6913447B627A687B69D31A7B60BA6A19
:100D10007B691344BB62FB6A002B02D0FB69BA6A91
:100D20001A61FB6A18463037BD4680BD387B00200B
:100D300080B588B000AFF860B9607A603B60314B35
:100D4000BB61BB691B78DBB2002B01D1FFF716FF3B
:100D50002C4B7B617B691B691A46FB68934248D226
:100D600003F0C2FC3861FB68002B32D07969FB6864
:100D70005A1C13465B001344DB000B44BA681A602C
:100D80007969FB685A1C13465B001344DB000B4473
:100D900004337A681A607969FA6813465B00134471
:100DA000DB000B4420333A681A607969FA6813460D
:100DB0005B001344DB000B44283300221A6079697E
:100DC000FA6813465B001344DB000B442433002213
:100DD0001A607969FA6813465B001344DB000B4420
:100DE0002C33BA6A1A60386903F08EFC0023FB6169
:100DF00002E04FF0FF33FB61FB6918462037BD4628
:100E000080BD00BF387B002080B588B000AFF8609F
:100E1000B9607A603B60314BBB61BB691B78DBB268
:100E2000002B01D1FFF7AAFE2C4B7B617B695B692C
:100E30001A46FB68934249D203F056FC3861FB68BE
:100E4000002B31D07969FA6813465B001344DB004C
:100E50000B444833BA681A607969FA6813465B0034
:100E60001344DB000B444C337A681A607969FA68E2
:100E700013465B001344DB000B4450333A681A609E
:100E80007969FA6813465B001344DB000B4458335E
:100E900000221A607969FA6813465B001344DB008C
:100EA0000B44543300221A607969FA6813465B00D8
:100EB0001344DB000B445C33BA6A1A60BFF35F8FE4
:100EC000386903F021FC0023FB6102E04FF0FF339F
:100ED000FB61FB6918462037BD4680BD387B00208A
:100EE000F0B400EB4003DFF8880000EBC30000F132
:100EF00018063069F7687568874232D3B368DC1B1F
:100F0000631E934214D37D19D01900BF11F8013B21
:100F100005F8013B013A05D011F8013B05F8013B0A
:100F2000013AF3D1BFF35F8FF0600120F0BC70474E
:100F3000C018904219D37819121B11F8013B00F820
:100F4000013B013CF9D1141C05D011F8013B05F817
:100F5000013B013AF9D1BFF35F8FF4600120F0BC8F
:100F60007047C01B01389042CDD20020F0BC7047C2
:100F7000387B002080B487B000AFF860B9607A6039
:100F800000233B6102E03B6901333B61BA683B6986
:100F900013441B78002BF6D13A697B689A4201D939
:100FA0007B683B613B69FE2B06D8FB685A1CFA60E4
:100FB0003A69D2B21A7011E0FB685A1CFA60FF223B
:100FC0001A70FB685A1CFA603A69D2B21A703B690F
:100FD000190AFB685A1CFA60CAB21A7000237B61B6
:100FE0000AE0BA68531CBB60FB68591CF9601278B0
:100FF0001A707B6901337B617A693B699A42F0D34D
:10100000FB6818461C37BD465DF8047B704780B40A
:1010100083B000AF78607B68043318460C37BD4658
:101020005DF8047B704780B582B000AFFB1C0122E5
:1010300019460120FFF7F6FD03467B607B68002B15
:1010400049DDFB78052B22D0052B0BDC022B15D0BC
:10105000022B02DC012B0ED032E0032B11D0042B2B
:1010600012D02DE0072B18D0072B13DB7F2B34D0A9
:10107000802B15D024E000F07DFA33E000F02AFB4D
:1010800030E000F0F5FC2DE000F0BEFC2AE000F0BE
:1010900043FB27E000F040FF24E000F01FFF21E0C9
:1010A000FB1C012219460120FFF7BCFD03467B60B3
:1010B0007B68002B13DDFB78184600F093FE0EE0F2
:1010C000FB785BB2002B0CDAFB1C012219460120D5
:1010D000FFF7A8FD05E000BF04E000BF02E000BF8D
:1010E00000E000BF00BF0837BD4680BD80B58CB0B2
:1010F00000AF01233B713B1D0133FB61FB69FB62C8
:10110000334B5B69BB620BE0BB6ADAB2FB6A591C0A
:10111000F96262F07F02D2B21A70BB6ADB09BB626D
:10112000BB6A7F2BF0D8FB6A5A1CFA62BA6AD2B249
:101130001A70FB6AFB61274B1B68BB61244BDB68A1
:10114000BA69D31A7B617B691B017B617B691B11C7
:101150007B61FB697B627B693B620BE03B6ADAB2D5
:101160007B6A591C796262F07F02D2B21A703B6AC4
:10117000DB093B623B6A7F2BF0D87B6A5A1C7A62A0
:101180003A6AD2B21A707B6AFB61FA693B1DD31AC4
:101190001A463B1D19460120FFF7A2FE03463B619C
:1011A0003B69002B09D00A4ABB69D360084B1B7806
:1011B000013BDAB2064B1A7004E0054B5B69013360
:1011C000034A53613B6918463037BD4680BD00BFB6
:1011D00008540020041000E080B58AB000AFF86029
:1011E000B9607A60654B1B78012B10D0634B1B787C
:1011F000002B00F0A780614B1B78022B09D1FFF771
:1012000075FF5E4B1B78012B40F09E8001E000BF14
:1012100000E000BF7B681F2B09D8584BDA697B6858
:1012200022FA03F303F00103002B40F08F807B6868
:10123000172B07D8FB68013BFB607B68DAB2FB68C1
:101240001A703DE0BA68FB68D31AFB61FB697F2B1B
:1012500012D9FB69DA09FB68013BFB60D2B2FB687B
:101260001A70FB69DBB2FA68013AFA6063F07F0337
:10127000DAB2FB681A7006E0FB68013BFB60FB69B1
:10128000DAB2FB681A707B687F2B12D97B68DA09A7
:10129000FB68013BFB60D2B2FB681A707B68DBB273
:1012A000FA68013AFA6063F07F03DAB2FB681A70F9
:1012B00006E0FB68013BFB607B68DAB2FB681A70F2
:1012C0002F4B1B68BB612D4BDB68BA69D31A7B615E
:1012D0007B691B017B617B691B097B61BB687B624E
:1012E0007B693B620BE03B6ADAB27B6A591C79622C
:1012F00062F07F02D2B21A703B6ADB093B623B6A42
:101300007F2BF0D87B6A5A1C7A623A6AD2B21A7082
:101310007B6ABB60BA68FB68D31A1A46F968012079
:10132000FFF7DEFD03463B613B69002B03D0134A08
:10133000BB69D3600BE0114B1B780133DAB20F4B62
:101340001A7004E000BF02E000BF00E000BF0D4BD8
:10135000DA6E0C4B1B6F9A420BD0084B9B78002B1C
:1013600007D1064B01229A70FFF75DFE034B002266
:101370009A7000BF2837BD4680BD00BF08540020CA
:10138000041000E0387B002080B586B002AFF86022
:10139000B9607A603B60002300934FF48043144AA5
:1013A00014490120FFF7C4FC002300930823124ACC
:1013B00010490120FFF728FD104B4FF080521A61B1
:1013C0000F4B1B680D4AD3600C4A7B6813620B4AB3
:1013D000FB685360094ABB689360084A3B685362E4
:1013E000064B00221A7000BF1037BD4680BD00BFFB
:1013F0000014002074CB000000540020085400208A
:10140000041000E080B483B000AF7860044A7B68C9
:10141000136100BF0C37BD465DF8047B704700BF09
:101420000854002080B584B000AF786003F05CF908
:10143000F8600848FFF7EBFDB8607A68B968B868EB
:10144000FFF7CAFEF86803F05FF900BF1037BD462A
:1014500080BD00BF3854002080B588B000AF7860F0
:10146000396003F041F978611648FFF7D0FD386123
:101470003B69FB60FB68FB613B68BB610BE0BB69E0
:10148000DAB2FB69591CF96162F07F02D2B21A70BC
:10149000BB69DB09BB61BB697F2BF0D8FB695A1CB8
:1014A000FA61BA69D2B21A70FB69FB607A68F968AE
:1014B0003869FFF791FE786903F026F900BF2037FD
:1014C000BD4680BD3854002080B58CB000AFF860B8
:1014D000B9607A6003F008F9F8612548FFF797FDD5
:1014E000B861BB697B617B69FB62BB68BB620BE077
:1014F000BB6ADAB2FB6A591CF96262F07F02D2B2AF
:101500001A70BB6ADB09BB62BB6A7F2BF0D8FB6A2F
:101510005A1CFA62BA6AD2B21A70FB6A7B617B69A2
:101520007B627B683B620BE03B6ADAB27B6A591CE8
:10153000796262F07F02D2B21A703B6ADB093B62C9
:101540003B6A7F2BF0D87B6A5A1C7A623A6AD2B225
:101550001A707B6A7B61FA687969B869FFF73CFEAB
:10156000F86903F0D1F800BF3037BD4680BD00BF39
:101570003854002080B58CB000AF534B01221A7054
:1015800003F0B2F8F8600A2250490120FFF7A8FCE6
:10159000F86803F0B9F80A20FFF744FF03F0A4F855
:1015A000B8604B48FFF733FD78607B683B603B6871
:1015B000FB62454B5B68BB620BE0BB6ADAB2FB6A5D
:1015C000591CF96262F07F02D2B21A70BB6ADB0961
:1015D000BB62BB6A7F2BF0D8FB6A5A1CFA62BA6AFC
:1015E000D2B21A70FB6A3B603B687B62364B9B68E9
:1015F0003B620BE03B6ADAB27B6A591C796262F0AB
:101600007F02D2B21A703B6ADB093B623B6A7F2BD6
:10161000F0D87B6A5A1C7A623A6AD2B21A707B6A34
:101620003B603B68FB61284B1B69BB610BE0BB69FE
:10163000DAB2FB69591CF96162F07F02D2B21A700A
:10164000BB69DB09BB61BB697F2BF0D8FB695A1C06
:10165000FA61BA69D2B21A70FB693B603B687B6180
:1016600002233B610BE03B69DAB27B69591C79616B
:1016700062F07F02D2B21A703B69DB093B613B69C1
:101680007F2BF0D87B695A1C7A613A69D2B21A7002
:101690007B693B60182239687868FFF79DFDB86860
:1016A00003F032F8084B5B6A002B02D0064B5B6AF2
:1016B000984700F0DDF900F0A7F900F02DFC00BF1D
:1016C0003037BD4680BD00BF0854002068CB000005
:1016D0003854002080B582B000AF03F005F8786080
:1016E0000B48FFF794FC38600A4B1B78002B07D09F
:1016F0000B2239683868FFF76FFD064B00221A701D
:10170000786803F001F800BF0837BD4680BD00BF10
:10171000385400200854002080B58CB000AF02F08F
:10172000E3FFF8604548FFF772FCB860BB687B6078
:101730007B68FB62424B5B68BB620BE0BB6ADAB260
:10174000FB6A591CF96262F07F02D2B21A70BB6A5E
:10175000DB09BB62BB6A7F2BF0D8FB6A5A1CFA62BA
:10176000BA6AD2B21A70FB6A7B607B687B62344BC8
:101770009B683B620BE03B6ADAB27B6A591C796278
:1017800062F07F02D2B21A703B6ADB093B623B6AAD
:101790007F2BF0D87B6A5A1C7A623A6AD2B21A70EE
:1017A0007B6A7B607B68FB61254B1B69BB610BE03F
:1017B000BB69DAB2FB69591CF96162F07F02D2B2EF
:1017C0001A70BB69DB09BB61BB697F2BF0D8FB6971
:1017D0005A1CFA61BA69D2B21A70FB697B607B68E5
:1017E0007B6102233B610BE03B69DAB27B69591CE8
:1017F000796162F07F02D2B21A703B69DB093B610A
:101800003B697F2BF0D87B695A1C7A613A69D2B266
:101810001A707B697B6018227968B868FFF7DCFC76
:10182000F86802F071FF064B5B6A002B02D0044B94
:101830005B6A984700BF3037BD4680BD38540020F2
:101840000854002080B592B000AF786002F04CFFE1
:1018500078616B48FFF7DBFB38613B69FB60FB6835
:101860007B647B681A68674B1B69D31A9B083B64CF
:101870000BE03B6CDAB27B6C591C796462F07F023E
:10188000D2B21A703B6CDB093B643B6C7F2BF0D807
:101890007B6C5A1C7A643A6CD2B21A707B6CFB6017
:1018A000FB68FB637B689B68BB630BE0BB6BDAB2D6
:1018B000FB6B591CF96362F07F02D2B21A70BB6BEA
:1018C000DB09BB63BB6B7F2BF0D8FB6B5A1CFA6345
:1018D000BA6BD2B21A70FB6BFB607B685B6820222C
:1018E0001946F868FFF746FBF8600922F96838697D
:1018F000FFF772FC3B69FB60FB687B637B681A68DF
:10190000404B1B69D31A9B083B630BE03B6BDAB27D
:101910007B6B591C796362F07F02D2B21A703B6B09
:10192000DB093B633B6B7F2BF0D87B6B5A1C7A63E4
:101930003A6BD2B21A707B6BFB60FB68FB627B6810
:10194000DB68BB620BE0BB6ADAB2FB6A591CF96266
:1019500062F07F02D2B21A70BB6ADB09BB62BB6A5B
:101960007F2BF0D8FB6A5A1CFA62BA6AD2B21A709C
:10197000FB6AFB60FB687B627B681B693B620BE078
:101980003B6ADAB27B6A591C796262F07F02D2B29A
:101990001A703B6ADB093B623B6A7F2BF0D87B6A9B
:1019A0005A1C7A623A6AD2B21A707B6AFB60FB6890
:1019B000FB610023BB610BE0BB69DAB2FB69591C18
:1019C000F96162F07F02D2B21A70BB69DB09BB61B8
:1019D000BB697F2BF0D8FB695A1CFA61BA69D2B295
:1019E0001A70FB69FB601522F9683869FFF7F4FB90
:1019F000786902F089FE00BF4837BD4680BD00BF50
:101A0000385400200854002080B500AF074B1B6AF3
:101A1000002B08D0054B1B6A5B68002B03D0034BDF
:101A20001B6A5B68984700BF80BD00BF0854002058
:101A300080B586B000AF786002F056FE78610B4842
:101A4000FFF7E5FA3861802279683869FFF792FA82
:101A5000F8600E22F9683869FFF7BEFB786902F07A
:101A600053FE00BF1837BD4680BD00BF385400206C
:101A700090B583B000AF144B1B6A002B19D0124BEA
:101A80001B6A1B68002B14D00F4B1B6A1B689847FE
:101A9000C7E900013868D7E900124FF000034FF0A2
:101AA0000004130000241A4601460D20FFF70CFD28
:101AB00005E0064B1B6819460C20FFF7CDFC00BF64
:101AC0000C37BD4690BD00BF08540020041000E054
:101AD00080B582B000AF02F007FE78600748FFF7DC
:101AE00096FA3860112239683868FFF775FB786814
:101AF00002F00AFE00BF0837BD4680BD3854002002
:101B000080B588B000AF786002F0EEFD78611A48C9
:101B1000FFF77DFA38613B69FB60184B1B697A68F7
:101B2000D31A9B087B60FB68FB617B68BB610BE0A1
:101B3000BB69DAB2FB69591CF96162F07F02D2B26B
:101B40001A70BB69DB09BB61BB697F2BF0D8FB69ED
:101B50005A1CFA61BA69D2B21A70FB69FB6008229A
:101B6000F9683869FFF738FB786902F0CDFD00BFEE
:101B70002037BD4680BD00BF3854002008540020E7
:101B800080B588B000AF786002F0AEFD78611A4889
:101B9000FFF73DFA38613B69FB60184B1B697A68B7
:101BA000D31A9B087B60FB68FB617B68BB610BE021
:101BB000BB69DAB2FB69591CF96162F07F02D2B2EB
:101BC0001A70BB69DB09BB61BB697F2BF0D8FB696D
:101BD0005A1CFA61BA69D2B21A70FB69FB6004221E
:101BE000F9683869FFF7F8FA786902F08DFD00BFEF
:101BF0002037BD4680BD00BF385400200854002067
:101C000080B588B000AF786002F06EFD78611A4848
:101C1000FFF7FDF938613B69FB60184B1B697A6877
:101C2000D31A9B087B60FB68FB617B68BB610BE0A0
:101C3000BB69DAB2FB69591CF96162F07F02D2B26A
:101C40001A70BB69DB09BB61BB697F2BF0D8FB69EC
:101C50005A1CFA61BA69D2B21A70FB69FB6006229B
:101C6000F9683869FFF7B8FA786902F04DFD00BFEE
:101C70002037BD4680BD00BF3854002008540020E6
:101C800080B58AB000AF7860396002F02DFD7861D0
:101C90002748FFF7BCF938613B69FB60254B1B699E
:101CA0007A68D31A9B087B60FB687B627B683B6227
:101CB0000BE03B6ADAB27B6A591C796262F07F0200
:101CC000D2B21A703B6ADB093B623B6A7F2BF0D8C9
:101CD0007B6A5A1C7A623A6AD2B21A707B6AFB60DB
:101CE000FB68FB613B68BB610BE0BB69DAB2FB6977
:101CF000591CF96162F07F02D2B21A70BB69DB092C
:101D0000BB61BB697F2BF0D8FB695A1CFA61BA69C9
:101D1000D2B21A70FB69FB600722F9683869FFF7D5
:101D20005BFA786902F0F0FC00BF2837BD4680BD41
:101D3000385400200854002080B588B000AF786087
:101D4000396002F0D1FC78611B48FFF760F9386117
:101D50003B69FB60FB68FB61184B1B697A68D31A0F
:101D60009B08BB610BE0BB69DAB2FB69591CF961E6
:101D700062F07F02D2B21A70BB69DB09BB61BB693A
:101D80007F2BF0D8FB695A1CFA61BA69D2B21A707B
:101D9000FB69FB6080223968F868FFF7EBF8F860B0
:101DA0001922F9683869FFF717FA786902F0ACFC74
:101DB00000BF2037BD4680BD3854002008540020A5
:101DC00080B483B000AF7860054B1B697A68D31A82
:101DD0009B0818460C37BD465DF8047B704700BF72
:101DE0000854002080B58CB000AF0346FB71394B1E
:101DF0001B68002B69D0374B1B68FB620023BB625A
:101E000008E0FB6A1B69FB62FB6A002B07D0BB6A18
:101E10000133BB62FB79BA6A9A42F2D300E000BF99
:101E2000FB6A002B51D002F05FFC78612A48FFF773
:101E3000EEF838613B69FB60FB687B62FB793B62D3
:101E40000BE03B6ADAB27B6A591C796262F07F026E
:101E5000D2B21A703B6ADB093B623B6A7F2BF0D837
:101E60007B6A5A1C7A623A6AD2B21A707B6AFB6049
:101E7000FB68FB61FB6A9B68BB610BE0BB69DAB284
:101E8000FB69591CF96162F07F02D2B21A70BB691A
:101E9000DB09BB61BB697F2BF0D8FB695A1CFA6177
:101EA000BA69D2B21A70FB69FB60FB6A1B688022B8
:101EB0001946F868FFF75EF8F8601622F968386985
:101EC000FFF78AF9786902F01FFC00BF3037BD4682
:101ED00080BD00BF305400203854002080B582B04F
:101EE00000AF0C4B1B68002B0FD00A4B1B687B60AC
:101EF0007B68DB68002B02D07B68DB6898477B68D7
:101F00001B697B607B68002BF2D100BF0837BD46A0
:101F100080BD00BF3054002080B586B000AF02F015
:101F2000E3FBF8601748FFF772F8B860BB687B60A6
:101F30007B687B61144B1B783B610BE03B69DAB239
:101F40007B69591C796162F07F02D2B21A703B69D9
:101F5000DB093B613B697F2BF0D87B695A1C7A61B6
:101F60003A69D2B21A707B697B601B227968B868C3
:101F7000FFF732F9F86802F0C7FB00BF1837BD461B
:101F800080BD00BF385400203454002080B58AB092
:101F900000AF786002F0A8FB78612748FFF737F8B8
:101FA0003861802279683869FEF7E4FFF860FB68E1
:101FB0007B6201233B620BE03B6ADAB27B6A591C0D
:101FC000796262F07F02D2B21A703B6ADB093B622F
:101FD0003B6A7F2BF0D87B6A5A1C7A623A6AD2B28B
:101FE0001A707B6AFB60FB68FB610023BB610BE03E
:101FF000BB69DAB2FB69591CF96162F07F02D2B2A7
:102000001A70BB69DB09BB61BB697F2BF0D8FB6928
:102010005A1CFA61BA69D2B21A70FB69FB601A22C3
:10202000F9683869FFF7D8F8786902F06DFB00BFEE
:102030002837BD4680BD00BF3854002080B483B02F
:1020400000AF78607B6800221A6000BF0C37BD4685
:102050005DF8047B7047000080B582B000AF786007
:10206000144B01221A707B68002B01D101F010F88B
:102070007B6800221A70104B1A687B685A600F4BFD
:102080001A687B689A607B680D4ADA607B68B722C1
:102090001A617B680B4A5A6100F0F6F900F0ECF91E
:1020A000786800F04BFF7B681B78002B0837BD4633
:1020B00080BD00BF1B5500205CF20000A8F40000AA
:1020C0007CCB0000F8CB000080B400AF034B1B6852
:1020D0001846BD465DF8047B704700BF1C550020C4
:1020E00080B485B000AF03460A46FB711346BB714E
:1020F0000023FB73FB79162B63D801A252F823F05F
:102100005D210000632100006921000069210000B9
:10211000692100006F210000752100007521000079
:10212000752100007B210000812100008721000033
:102130008D210000932100009321000093210000D5
:10214000A5210000AB210000B1210000B721000053
:10215000992100009F210000BD2100000123FB7395
:1021600030E00123FB732DE00123FB732AE0012300
:10217000FB7327E00123FB7324E00123FB7321E0C1
:102180000123FB731EE00123FB731BE00123FB73A0
:1021900018E00123FB7315E00123FB7312E0012318
:1021A000FB730FE00123FB730CE00123FB7309E0D9
:1021B0000123FB7306E00123FB7303E00123FB73A0
:1021C00000E000BFFB7B18461437BD465DF8047B7A
:1021D000704700BF80B58EB000AFF860B9607A601C
:1021E0000023FB627B68002B01D100F051FF274BDD
:1021F0001B68002B08D1786800F04AF87B681B78D0
:10220000002B01D0FB6A3DE0204B1B687968184623
:1022100000F042FA38637B681B78002B01D0FB6A20
:1022200030E03B6B7A68F968184605F0B3FB7B68D1
:102230001B78002B17D1BB68002B09D0BB681B781B
:1022400003F00103002B03D0012387F8373002E0AD
:10225000002387F837303B6B97F8372083F834201A
:102260003B6BFB620DE0094B1B68184607F114033A
:102270001A46396B00F006FB3B7D002B01D000F0C5
:1022800007FFFB6A18463837BD4680BD2055002041
:1022900080B588B004AF78607B68002B01D100F076
:1022A000F7FE7B6800221A705E4B1A687B685A60E2
:1022B0005D4B1A687B689A607B685C4ADA607B6871
:1022C0004FF40D621A617B68594A5A61786804F0CC
:1022D00041F87B681B78002B03D0786804F0C4F8C1
:1022E0009DE0544B1B68002B40F09580FFF7ECFEFF
:1022F000F8607B68B422F9684F4800F053F9024651
:102300004C4B1A607B681B78002B03D0786804F074
:10231000ABF884E0474B1B6819467B6803934FF08A
:10232000FF33029300230193042300933823FA68B8
:10233000424800F05FF97B681B78002B03D0786877
:1023400004F092F86BE03B4B1B6803F124017B68BF
:1023500003934FF0FF330293002301930423009370
:102360002C23FA68364800F045F97B681B78002B6F
:1023700003D0786804F078F851E02E4B1B6803F125
:102380006C017B6803934FF0FF33029300230193AA
:10239000042300933823FA682A4800F02BF97B685D
:1023A0001B78002B03D0786804F05EF837E0214BEF
:1023B0001B6803F190017B6803934FF0FF33029396
:1023C00000230193042300930123FA681E4800F0C0
:1023D00011F97B681B78002B03D0786804F044F86F
:1023E0001DE0144B1B6803F148017B6803934FF019
:1023F000FF33029300230193042300932423FA68FC
:10240000124800F0F7F87B681B78002B03D078683F
:1024100004F02AF803E0786804F026F800BF1037CB
:10242000BD4680BD5CF20000A8F4000004CC0000B2
:102430000CCD000020550020A4CC0000B8CC00003A
:10244000C8CC0000D8CC0000E8CC0000FCCC0000D8
:1024500080B584B000AF786002F064F9F860054A96
:102460007B681360F86802F06DF900BF1037BD4655
:1024700080BD00BF2455002080B500AF0120FFF7CC
:10248000E7FF00BF80BD000080B586B000AF3B46CF
:102490001946064800F00CF83B78002B01D000F0FC
:1024A000F7FD00BF1837BD4680BD00BF10000020FB
:1024B00080B584B000AF786039603B68002B01D1F3
:1024C00000F0E6FD7B68002B15D13B680A221A70EC
:1024D0002F4B9A6A3B685A602E4B9A6A3B689A6007
:1024E0003B682D4ADA603B6840F2B9221A613B68CA
:1024F0002A4A5A61FEE702F015F9B860284B1B68BA
:10250000FB601FE0FA687B689A4218D1B86802F055
:1025100019F93B6815221A701D4B5A6D3B685A60B9
:102520001C4B5A6D3B689A603B681B4ADA603B68FB
:102530004FF430721A613B68184A5A6124E0FB6814
:10254000DB68FB60FB68002BDCD1154B1A687B68ED
:10255000DA60134A7B681360B86802F0F3F83B68EE
:1025600000221A700A4B1A683B685A60094B1A68B5
:102570003B689A603B68084ADA603B6840F2CB22CD
:102580001A613B68054A5A611037BD4680BD00BFDD
:102590005CF20000A8F4000018CD000090CD00000F
:1025A000B07B002080B58AB004AFF860B9607A6073
:1025B0003B60BB687B613B68002B01D100F068FD8C
:1025C0007B69002B01D10A4B7B613B68029300239E
:1025D00001930123009304237A687969F86800F075
:1025E000F1F938613B6918461837BD4680BD00BF18
:1025F0001000002080B58AB004AFF860B9607A603E
:102600003B607B687B61FB6A002B01D100F040FDE1
:10261000BB68002B15D1FB6A0A221A70194B9A6A03
:10262000FB6A5A60184B9A6AFB6A9A60FB6A174AFF
:10263000DA60FB6A40F214421A61FB6A144A5A617A
:10264000FEE77B69002B01D1124B7B61BB68002246
:102650001A70BB680022DA61BB6800221A62FB6A4A
:102660000393BB6A02937B6A01933B6A00933B68C6
:102670007A69B968F86800F0B9FA00BF1837BD4642
:1026800080BD00BF5CF20000A8F4000018CD00007F
:102690009CCD00001000002090B58BB004AF786096
:1026A00039603B68002B01D100F0F2FC7B68002B05
:1026B00015D13B680A221A706E4B9A6A3B685A60C1
:1026C0006D4B9A6A3B689A603B686C4ADA603B687B
:1026D00040F2D7421A613B68694A5A61FEE702F04C
:1026E00021F878617B685B69B3F1FF3F1FD07B689D
:1026F0009A697B685B699A4219D3786902F022F87B
:102700003B6818221A705B4B1A6E3B685A605A4B32
:102710001A6E3B689A603B68584ADA603B6840F240
:10272000E2421A613B68564A5A6100239DE07B6889
:102730009B695A1C7B689A617B681B69002B2DD0B2
:102740007B681B69FB607B681B7803F00203002B2E
:1027500002D1FB681B6805E07B689B68043BFA6854
:1027600013441B687A681361786901F0EBFF3B68DA
:1027700000221A703F4B1A683B685A603E4B1A6839
:102780003B689A603B683D4ADA603B6840F2F14240
:102790001A613B683A4A5A61FB6866E0786901F061
:1027A000D1FF00233B617B6859687B6898687B6830
:1027B000DC687B681B7803F00103002B03D07B6887
:1027C0005B681B6900E001233A68029200220192D3
:1027D000009323460246386900F0F4F8F8603B683D
:1027E0001B78002B0CD001F09DFF78617B689B6902
:1027F0005A1E7B689A61786901F0A4FF002334E0D7
:102800007B68DB69002B2FD07B68DC697B685968AB
:102810007B681B6AFA687868A0470346FB72FB7AFC
:10282000012B21D001F07EFF78617B689B695A1EE5
:102830007B689A61786901F085FF3B681A221A70FB
:102840000C4B9A6E3B685A600B4B9A6E3B689A60D1
:102850003B680A4ADA603B6840F21B521A613B68E7
:10286000074A5A61002300E0FB6818461C37BD4642
:1028700090BD00BF5CF20000A8F4000018CD00007D
:10288000B0CD000080B586B000AFF860B9607A6066
:102890007B68002B01D100F0FBFBFB68002B15D1FE
:1028A0007B680A221A70434B9A6A7B685A60424BD3
:1028B0009A6A7B689A607B68404ADA607B6840F27B
:1028C0003D521A617B683E4A5A61FEE7BB68002BA5
:1028D00015D17B680A221A70364B9A6A7B685A6057
:1028E000354B9A6A7B689A607B68344ADA607B6809
:1028F00040F23E521A617B68314A5A61FEE701F0AC
:1029000011FF7861FB689B69002B18D1786901F091
:1029100019FF7B6817221A70264BDA6D7B685A60A4
:10292000254BDA6D7B689A607B68244ADA607B68A5
:1029300040F247521A617B68214A5A6137E0FB68CE
:102940009B695A1EFB689A61786901F0FBFEFB687F
:102950001B7803F00203002B05D0FB689B68043B47
:10296000BA68134400E0BB683B6101F0DBFE7861AC
:10297000FB681A693B691A60FB68BA681A61786972
:1029800001F0E0FE7B6800221A700A4B1A687B682F
:102990005A60094B1A687B689A607B68074ADA605C
:1029A0007B6840F257521A617B68054A5A611837B2
:1029B000BD4680BD5CF20000A8F4000018CD000008
:1029C000C4CD000080B588B002AFF860B9607A600D
:1029D0003B607B68002B15D1BB6A08221A70374B0D
:1029E0001A6ABB6A5A60364B1A6ABB6A9A60BB6A3B
:1029F000344ADA60BB6A4FF4D9621A61BB6A324A60
:102A00005A61FEE73B68002B05D03B685A1E3B68C5
:102A10001340002B02D03B68002B01D1012300E0C2
:102A20000023002B15D1BB6A08221A70234B1A6AA7
:102A3000BB6A5A60224B1A6ABB6A9A60BB6A214A17
:102A4000DA60BB6A40F2CC621A61BB6A1E4A5A6104
:102A5000FEE701F067FE7861BB6A01937B6A009331
:102A60003B6A3A687968B86800F030F83861BB6A48
:102A70001B78002B19D0786901F064FEBB6A16221E
:102A80001A700E4B9A6DBB6A5A600D4B9A6DBB6AF9
:102A90009A60BB6A0B4ADA60BB6A40F2D7621A617D
:102AA000BB6A094A5A61002303E0786901F04AFED3
:102AB0003B6918461837BD4680BD00BF5CF2000078
:102AC000A8F4000018CD0000D8CD000080B48BB071
:102AD00000AFF860B9607A603B607B68002B01D082
:102AE0007B6800E004233A68934238BF13467B6258
:102AF000FB689B681A467B6A5B421A40FB689B68CE
:102B000019467B6A013B0B40002B01D07B6A00E039
:102B1000002313443B623A6ABB681A443B685B4239
:102B20001A40396ABB6819443B68013B0B40002BD3
:102B300001D03B6800E000231344FB61FB685B6845
:102B40001A46FB689B68D31A0133BB61FB689B681C
:102B50001A46FB699B1A7B61BA697B699A421ED24D
:102B60003B6B002B04D07A69BB69D21A3B6B1A60AD
:102B70007B6B16221A70194B9A6D7B6B5A60184B3F
:102B80009A6D7B6B9A607B6B164ADA607B6B40F2C6
:102B900022721A617B6B144A5A61002318E0FA69A9
:102BA000FB689A607B6B00221A700C4B1A687B6B77
:102BB0005A600B4B1A687B6B9A607B6B094ADA6030
:102BC0007B6B4FF4E5621A617B6B074A5A613B6A83
:102BD00018462C37BD465DF8047B70475CF2000058
:102BE000A8F4000018CD0000F0CD000090B593B01F
:102BF00004AFF860B9607A603B603B68002B15D188
:102C00007B6D08221A70924B1A6A7B6D5A60914B49
:102C10001A6A7B6D9A607B6D8F4ADA607B6D40F239
:102C200093721A617B6D8D4A5A61FEE73B6DB3F179
:102C3000FF3F03D0FA6C3B6D9A4201D8012300E0BC
:102C40000023002B15D17B6D08221A70804B1A6A65
:102C50007B6D5A607F4B1A6A7B6D9A607B6D7E4AF2
:102C6000DA607B6D40F297721A617B6D7B4A5A6124
:102C7000FEE7BB6C002B08D0BB6C5A1EBB6C13402C
:102C8000002B02D1BB6C032B02D8BB6C002B01D1F3
:102C9000012300E00023002B15D17B6D08221A7060
:102CA0006B4B1A6A7B6D5A606A4B1A6A7B6D9A602D
:102CB0007B6D694ADA607B6D40F29C721A617B6DB4
:102CC000664A5A61FEE7BB6C002B01D0BB6C00E08A
:102CD0000423FB61BB681B7803F00203002B10D0B8
:102CE0003B6823F003033A6802F00302002A01D193
:102CF000002200E0042213443B633B6B04333B633C
:102D000004E03B68042B38BF04233B63FB6C002BBF
:102D100000F0DF80BB681B7803F00103002B02D1B9
:102D2000FB69BB6206E07B681B69FA69934238BFA6
:102D30001346BB62BB6A5A423B6B1A40BB6A591EC0
:102D40003B6B0B40002B01D0BB6A00E00023134417
:102D5000BB61BB69FA6C02FB03F37B623A6BBB6934
:102D6000D31A7A6A13447B62BB681B7803F00103B1
:102D7000002B11D07B681B695A427B6A1A407B6822
:102D80001B69591E7B6A0B40002B02D07B681B69B4
:102D900000E0002313447B627B6D029300230193C8
:102DA00001230093BB6A7A6A7968F868FFF70AFE24
:102DB00078637B6D1B78002B40F0B380BB687A6B27
:102DC0001A61BB681B7803F00203002B02D17B6BF6
:102DD0003B620EE03B6823F003033A6802F0030213
:102DE000002A01D1002200E0042213447A6B13442C
:102DF0003B620123FB623EE03B6A796BBA690A449D
:102E00001A60BB68DB69002B2AD0BB68DC69BB6831
:102E10001B6A7A6B7968B868A0470346BB75BB7DAF
:102E2000012B1DD07B6D1A221A70094B9A6E7B6D97
:102E30005A60084B9A6E7B6D9A607B6D064ADA6029
:102E40007B6D40F2D9721A617B6D044A5A6169E068
:102E50005CF20000A8F4000018CD000008CE0000CD
:102E60003A6ABB6913443B627A6BBB6913447B6368
:102E7000FB6A0133FB62FA6AFB6C9A42BCD33B6A81
:102E800000221A60BB68DB69002B25D0BB68DC69B7
:102E9000BB681B6A7A6B7968B868A0470346FB7504
:102EA000FB7D012B18D07B6D1A221A701F4B9A6E76
:102EB0007B6D5A601E4B9A6E7B6D9A607B6D1D4ACE
:102EC000DA607B6D40F2E9721A617B6D1A4A5A61D1
:102ED00028E0BB6800221A61BB687A685A60BB6848
:102EE0003A6B9A60BB68FA69DA60BB683A6D5A61FE
:102EF000BB6800229A617B6D00221A700B4B1A6826
:102F00007B6D5A600A4B1A687B6D9A607B6D094A2B
:102F1000DA607B6D40F2FC721A617B6D064A5A6181
:102F200000E000BF3C37BD4690BD00BF5CF2000032
:102F3000A8F4000018CD000008CE000090B589B0BC
:102F400004AF78607B68002B01D100F0A1F87B68AA
:102F500000221A70424B1A687B685A60414B1A680B
:102F60007B689A607B68404ADA607B68C4221A6199
:102F70007B683E4A5A613E4B5B68002B6DD0002156
:102F80000220FFF7ADF80346FB7300210320FFF793
:102F9000A7F803461A46FB7B1340FB73002104206D
:102FA000FFF79EF803461A46FB7B1340FB73FB7B3F
:102FB000012B14D07B6806221A70294B9A697B6812
:102FC0005A60284B9A697B689A607B68264ADA6067
:102FD0007B68CA221A617B68244A5A61FEE7FFF7C0
:102FE00073F8B8607B682C22B9682248FFF7DAFAD8
:102FF0000246214B1A607B681B78002B28D11E4BA0
:103000001B68181D1A4B1B68194A5268796803918E
:1030100002920193042300930823BA6801461748DB
:10302000FFF7E8FA7B681B78002B13D1124B1C6862
:103030007A6800211248FFF7CDF8A0627B681B7800
:10304000002B09D10C4B1B681846FEF7F7FF04E074
:1030500000BF02E000BF00E000BF1437BD4690BDD6
:103060005CF20000A8F4000024CE0000FCCE0000BA
:1030700024000020ACCE000028550020C0CE000067
:10308000D8CE000080B500AF00F064F800BF80BD6E
:1030900080B400AFFEE780B582B000AFFDF7DEF888
:1030A00078607B6818460837BD4680BD80B584B01F
:1030B00000AF78607B68002B01D1FFF7E9FF184B68
:1030C0001B68FB60FB68002B01D0002200E0092296
:1030D0007B681A70FB68002B01D0002300E00923F5
:1030E000104A52F823207B685A60FB68002B01D0FD
:1030F000002300E009230C4A52F823207B689A60E1
:103100007B680A4ADA607B684FF4F9721A617B685F
:10311000074A5A61FB6818461037BD4680BD00BF9C
:10312000B49B00205CF20000A8F40000F4F600005C
:1031300068F7000080B483B000AF7860044A7B6811
:10314000136000BF0C37BD465DF8047B704700BFBD
:10315000B49B002080B500AF034B00221A60FDF73E
:103160005BF800BF80BD00BFB49B002080B487B077
:1031700000AFF860B9607A60FB6803F10473DA00AD
:10318000BB6813449B007B617B697A681A6000BF4F
:103190001C37BD465DF8047B704780B485B000AF36
:1031A000786039607B6803F1C063FB60FB683A6854
:1031B0001A6000BF1437BD465DF8047B704780B4C9
:1031C00085B000AF786039607B6803F18063FB6095
:1031D000FB683A681A6000BF1437BD465DF8047B8F
:1031E000704780B584B000AFF860B9607A60B968A4
:1031F000F868FFF7E4FF7968F868FFF7CEFF00BFD3
:103200001037BD4680BD000080B582B000AF786049
:1032100039607B68B3F1804F07D07B68274A9342BF
:1032200003D0A821264800F0AFF83B681B693F2B6C
:1032300003D9BC21224800F0A7F83B68DB683F2B8C
:1032400003D9BD211E4800F09FF83B685B683F2B07
:1032500003D9BF211A4800F097F83B681B78DB07B9
:103260001A463B685B681B06134343F400427B68C5
:103270001A603B68DB681B043A68127A1A437B6861
:103280009A623B681B691B043A68527A1A437B684E
:10329000DA623B689B7A1B0743F0806343F47D430B
:1032A0007A68536078683B681B7D1A460021FFF7F7
:1032B0005DFF00BF0837BD4680BD00BF0004004071
:1032C0007CF7000080B582B000AF78600B46FB70E1
:1032D0007B68B3F1804F07D07B68094A934203D0E3
:1032E000FB21084800F050F87B680433FA78FF218E
:1032F0001846FFF776FF00BF0837BD4680BD00BF08
:10330000000400407CF7000080B582B000AF786018
:103310007B68B3F1804F08D07B68094A934204D0A0
:1033200040F22111074800F02FF87B681B6823F05A
:1033300001027B681A6000BF0837BD4680BD00BF30
:10334000000400407CF7000080B582B000AF7860D8
:103350007B68B3F1804F08D07B68094A934204D060
:103360004FF49A71074800F00FF87B681B6843F030
:1033700001027B681A6000BF0837BD4680BD00BFF0
:10338000000400407CF7000080B483B000AF786098
:103390003960FEE780B487B000AFF860B9607A604A
:1033A000FB6803F10473DA00BB6813449B007B6184
:1033B0007B697A681A6000BF1C37BD465DF8047BE4
:1033C000704780B485B000AF786039607B6803F1E6
:1033D0000473DA003B6813449B00FB60FB681B68C6
:1033E00018461437BD465DF8047B704780B582B03F
:1033F00000AF78607B681F2B04D94FF496710548A5
:10340000FFF7C2FF01227B6802FA03F31846083770
:10341000BD4680BD90F7000080B400AF064B1B682E
:1034200003F04003002B01D1012300E000231846E4
:10343000BD465DF8047B70473C300E4080B500AF60
:10344000FFF7EAFF034683F00103DBB2002B08D14C
:1034500000BF12210448FFF7B4FF0346002BF8D148
:1034600000E000BF80BD00BF04300E4080B500AF5B
:10347000FFF7E4FF034B5B681B0C03F00303DBB2B5
:10348000184680BD00300E4080B584B000AF786033
:103490000123FB607B68124A934204D80023FB603F
:1034A0000023BB6008E07B680E4A934202D80123E8
:1034B000BB6001E00223BB60FA6810210A48FFF7F5
:1034C00069FF094BD3F8003123F08072BB681B06FB
:1034D00005491343C1F8003100BF1037BD4680BD18
:1034E0000048E8010090D00300400E4080B483B053
:1034F00000AF054B1B687B607B6818460C37BD46E8
:103500005DF8047B704700BF2C00002080B582B0BE
:1035100000AFFCF79DFF7860064BD3F800311B0A23
:1035200003F01F0301337A6802FB03F318460837E0
:10353000BD4680BD00400E4080B582B000AF0F4850
:1035400000F066FB0346FB70FB78072B05D0092BC8
:1035500007D1FCF77DFF78600BE0FFF7C7FF7860CD
:1035600007E000237B6040F612510548FFF70CFF8F
:1035700000BF7B6818460837BD4680BD06000E00B8
:103580005CF8000080B584B000AF78607B68002BE9
:103590001CD1204800F03CFB0346FB7200BFFB7AC5
:1035A000013B072B28D801A252F823F0DB3500009D
:1035B000F9350000F9350000E9350000F935000063
:1035C000F9350000E1350000F135000040F63251D8
:1035D0001148FFF7D9FE002317E00023FB6013E03A
:1035E000FFF784FFF8600FE0FCF776FFF8600BE070
:1035F000FFF78CFFF86007E00023FB6040F64951BD
:103600000548FFF7C1FE00BFFB6818461037BD46EE
:1036100080BD00BFB80032005CF8000080B584B007
:1036200000AF78603960204B5B6803F04073FB604B
:103630000023BB6012E01D4ABB68DB0013441A790B
:103640003B68DBB29A4206D1184ABB6852F8333065
:103650007A689A4206D9BB680133BB60BB68042B09
:10366000E9D900E000BFBB68052B07D10323FB604D
:103670004FF465610E48FFF787FE05E00B4ABB6813
:10368000DB0013445B79FB60FB681B06FB60064BA9
:103690005B6823F040720449FB6813434B6000BF32
:1036A0001037BD4680BD00BF00000E40C0F80000CE
:1036B0005CF8000080B582B000AF0E4B1B6C002B95
:1036C00014BF01230023FB710A4B41F671321A64C7
:1036D000FCF7B4FE034600211846FFF79FFFFB7975
:1036E000002B02D0034B00221A6400BF0837BD46EE
:1036F00080BD00BF00000E4080B584B000AF786090
:1037000039600C4B1B6C002B14BF01230023FB738F
:10371000084B41F671321A6439687868FFF77EFF0A
:10372000FB7B002B02D0034B00221A6400BF103732
:10373000BD4680BD00000E4080B487B000AF786009
:103740000F237B617B6803333B617B69FB60FA6815
:103750003B69934228BF1346BB60BB681B07BB6035
:10376000BB6818461C37BD465DF8047B70470000F7
:1037700080B400AF044B5B6A1B0903F003031846D7
:10378000BD465DF8047B704700400E4080B483B0B6
:1037900000AF7860074B5B6A23F030027B681B0147
:1037A000044913434B6200BF0C37BD465DF8047BF0
:1037B000704700BF00400E4090B585B000AF786004
:1037C0000023BB607B683C4A93420BD03B4A934248
:1037D00008D03B4A934205D04FF475613948FFF752
:1037E000D3FD00E000BF786800F012FA0346FB60EA
:1037F0007B68314A93420CD0304A934210D0304A11
:10380000934214D1304BD3F8803003F00703FB60B0
:1038100013E02D4BD3F8843003F00703FB600CE07A
:10382000294BD3F8883003F00703FB6005E040F62E
:103830007F712448FFF7A8FD00BFFB68042B2ED83A
:1038400001A252F823F000BF993800005D38000053
:1038500065380000753800006D380000FCF75EFE2A
:10386000B86024E0FCF76CFEB86020E0FCF75FFE77
:10387000B8601CE0FCF7ECFD0446134BD3F80031B4
:103880001B0E03F0010301331846FFF7AFFD03469B
:10389000B4FBF3F3BB600AE00023BB6007E0002346
:1038A000BB6040F6D7710748FFF76EFD00BFBB68ED
:1038B00018461437BD4690BD0300200005002400C3
:1038C00002001E005CF8000000400E4080B483B08F
:1038D00000AF78600A4BD3F8443103F00103002BAA
:1038E00008D100BF064BD3F840217B681340002B62
:1038F000F8D100E000BF0C37BD465DF8047B70478F
:1039000000400E4080B400AF00BFBD465DF8047BB0
:10391000704780B400AF00BFBD465DF8047B7047C0
:1039200080B586B000AF78600B46FB7000233B612A
:103930007B681B0A03F00F03013B092B32D801A25D
:1039400052F823F06D39000079390000A5390000E4
:10395000A5390000733900007F3900008939000063
:10396000A5390000933900009F3900001A4B7B6194
:103970001EE01A4B7B611BE0194B7B6118E0194B71
:103980007B6101233B6113E0174B7B6110233B619B
:103990000EE0164B7B614FF480333B6108E0144B23
:1039A0007B6105E041F2DB311248FFF7EDFC10E0EE
:1039B0007B681B0B03F01F03FB603B69002B02D0ED
:1039C0003869FFF783FFFB781A46F9687869FFF7D3
:1039D000E1FC1837BD4680BD00400E40B0400E40AF
:1039E000C0400E40E0400E40E8400E40F0400E4027
:1039F00050410E405CF8000080B584B000AF7860A4
:103A00007B6803F47813B3F5A01F7DD0B3F5A01F36
:103A10001AD8B3F5202F50D0B3F5202F08D8B3F51E
:103A2000003F4ED0B3F5802F38D0002B32D0D8E0F5
:103A3000B3F5602F00F0C880B3F5801F00F0C88098
:103A4000B3F5402F4CD0CCE0B3F5001F00F08B80D5
:103A5000B3F5001F0AD8B3F5D01F00F08980B3F585
:103A6000F01F4CD0B3F5B01F5CD0BAE0B3F5381FEF
:103A70006AD0B3F5381F04D8B3F5101F00F09F804B
:103A8000AFE0B3F5401F00F08680B3F5481F00F0AB
:103A9000A380A6E0FCF7DCFCF860AAE0FCF7D8FC09
:103AA000F860564BD3F80C311B0AC3F308030133FB
:103AB000FA68B2FBF3F3FB609BE0FCF7C9FCF8602B
:103AC00097E0FCF7C5FCF8604C4BD3F808311B0AB3
:103AD000C3F308030133FA68B2FBF3F3FB6088E039
:103AE000FCF7B6FCF860454BD3F814311B0A03F021
:103AF0001F030133FA68B2FBF3F3FB6079E040483F
:103B0000FFF75AFEF86074E03E48FFF755FEF86094
:103B10003A4BD3F8303103F00303FA6822FA03F387
:103B2000FB6066E03648FFF747FEF860334BD3F89A
:103B3000203103F00F031846FFF758FC0246FB68DC
:103B4000B3FBF2F3FB6054E02D48FFF735FEF8605D
:103B50002A4BD3F820311B0903F00303FA6822FA39
:103B600003F3FB6045E02848FFF726FEF86040E0DD
:103B70002548FFF721FEF860204BD3F828311B09B8
:103B800003F003031846FFF731FC0246FB68B3FB62
:103B9000F2F3FB602DE01C48FFF70EFEF860174BB8
:103BA000D3F828311B0A03F0030304331846FFF748
:103BB0001DFC0246FB68B3FBF2F3FB6019E0114801
:103BC000FFF7FAFDF86014E0FFF7B6FCF86010E0CC
:103BD000FFF78CFCF8600CE00020FFF7D3FCF860E6
:103BE00007E00023FB6041F201510848FFF7CCFBDE
:103BF00000BFFB6818461037BD4680BD00400E4030
:103C000002001E0005002400030020005CF80000F4
:103C100080B584B000AF78600123FB737B6803F04C
:103C20000F03BB60BB68013B072B00F2C48001A2FD
:103C300052F823F0553C0000AB3C0000DB3C000098
:103C4000B73D0000213D0000513D0000B73D0000A0
:103C5000753D00005E4BD3F8943003F00703023B40
:103C6000052B1ED801A252F823F000BF913C0000A2
:103C70008B3C0000853C0000973C0000A33C00000A
:103C80009D3C00000223FB730EE00323FB730BE05B
:103C90000423FB7308E00B23FB7305E00C23FB7389
:103CA00002E00523FB7300BF8DE0494BD3F8803061
:103CB00003F00703022B06D0042B07D0012B08D1F9
:103CC0000323FB7308E00223FB7305E00A23FB7365
:103CD00002E00123FB7300BF75E03D4BD3F8843055
:103CE00003F00703013B032B16D801A252F823F07F
:103CF000013D0000073D0000133D00000D3D0000A8
:103D00000323FB730BE00223FB7308E00A23FB731E
:103D100005E00623FB7302E00123FB7300BF52E0C2
:103D20002B4BD3F8883003F00703022B06D0042B6B
:103D300007D0012B08D10323FB7308E00223FB7398
:103D400005E00A23FB7302E00123FB7300BF3AE0A6
:103D50001F4B1B6F03F00103002B04D0012B05D177
:103D60000923FB7305E00723FB7302E00123FB73C8
:103D700000BF28E0164BD3F85C3103F03003102B62
:103D80000CD0102B02D8002B05D010E0202B08D02F
:103D9000302B09D00BE00123FB730BE00723FB73EF
:103DA00008E00423FB7305E00823FB7302E0012312
:103DB000FB7300BF07E00023FB7341F628110548A1
:103DC000FFF7E2FA00BFFB7B18461037BD4680BD07
:103DD00000400E405CF8000080B58AB000AF78600B
:103DE0000B46FB7003237B62032387F823300023F9
:103DF000BB6100237B617B68112B19D1FB78042BFD
:103E000003D1FCF769FB78610BE0FB78052B08D147
:103E100000F08AF90246BB4B9A4202D900F084F9BD
:103E200078617B69002B03D00021786900F056FD92
:103E30007B6803F00F033B613B69013B072B00F2FA
:103E4000578101A252F823F0693E0000753F00003F
:103E5000A73F0000F1400000893F000049400000FA
:103E6000F140000073400000FB78023B0A2B49D868
:103E700001A252F823F000BFA53E0000B13E0000B1
:103E8000BD3E0000CF3E0000053F0000053F0000A2
:103E9000053F0000053F0000F93E0000E13E000044
:103EA000ED3E000004237B62002387F823302FE0DF
:103EB00003237B62012387F8233029E002237B62FE
:103EC000022387F823309048FFF7DEFA20E0012331
:103ED0007B62032387F823308B48FFF7D5FA17E07E
:103EE00005237B62032387F8233011E007237B62DD
:103EF000062387F823300BE041F6E9118348FFF7EA
:103F000043FAFBE041F6EE118048FFF73DFAF5E099
:103F100097F82330062B06D097F823300122012191
:103F2000184600F08FF9FFF7C5FBFFF7EBFC7B6944
:103F3000002B01D0FFF782FA754A7B6A53677548F8
:103F4000FFF75AFD03461846FFF79EFAFCF756FAAC
:103F5000F860FFF78BFA03461946F868FFF7CCFBC9
:103F60007B69002B03D10121002000F0B7FCFFF793
:103F7000D0FCC3E0684BBB61FB78062B04D141F653
:103F80002A216248FFF700FABB69002B01D0BB6908
:103F900000E0624BBB61FB78062B04D141F63E2169
:103FA0005A48FFF7F1F9BB69002B01D0BB6900E06B
:103FB0005B4BBB61FB78013B092B3BD801A252F85C
:103FC00023F000BFED3F0000F33F0000034000007E
:103FD000354000003540000013400000354000002F
:103FE00035400000354000002F4000000023FB61F9
:103FF00026E001220121002000F024F90223FB61C8
:104000001EE001220121012000F01CF90123FB61C7
:1040100016E0FCF7F3F903461846FFF735FA0122DC
:1040200002214048FFF7B6F90323FB6108E00423AF
:10403000FB6105E041F66A213448FFF7A5F95DE030
:10404000BB69FA691A6059E0FB78072B02D0092B8B
:1040500004D007E02E4B00221A6709E02C4B012206
:104060001A6705E041F6F4212848FFF78DF945E08D
:1040700044E0FB78013B072B28D801A252F823F03B
:10408000A1400000CD400000CD400000B74000003E
:10409000CD400000CD400000A7400000C740000018
:1040A0000023FB6118E001220121042000F0CAF87E
:1040B0000123FB6110E001220121022000F0C2F87F
:1040C0000223FB6108E00323FB6105E041F6523166
:1040D0000E48FFF759F911E00D4BD3F85C3123F08E
:1040E0003002FB691B010A491343C1F85C3105E04A
:1040F00041F629410548FFF747F900BF2837BD467B
:1041000080BD00BF002D31010148E8015CF80000CE
:1041100000400E4000250A0080400E4088400E40BE
:1041200084400E40B0400E4080B400AF034B1B688B
:104130001846BD465DF8047B704700BF0C000020A8
:1041400090B585B000AF78601120FFF761FD0346A0
:10415000042B04D141F6D9613748FFF715F9012244
:104160000021022000F06EF87B685B78002B07D1FD
:104170007B689B78002B03D17B68DB78002B04D015
:1041800041F617712C48FFF7FFF80023FB607B68AE
:104190001B7C012B04D141F61C712748FFF7F4F872
:1041A0007B681B7C022B01D10123FB60234B5B6AE4
:1041B00023F001022149FB6813434B627B681B78A3
:1041C0001A4608211E48FFF7E5F87B689B88DB024A
:1041D0007A68527A1146194A0B43D362174B1B6B0C
:1041E00003F07F627B68DB88DB0213437A68927A94
:1041F0001A437B681B7ADB0142EA03047B681B7A63
:104200001846FFF799FA03460C4A234313637B6869
:104210005B7B1A037B689B7B1B0113437A68D27B11
:104220001A437B681B7B1B04044913434B6300BF89
:104230001437BD4690BD00BF5CF8000000400E4042
:1042400024400E4080B588B000AF0346FB710B469A
:10425000BB7113467B71FB79042B3CD801A252F849
:1042600023F000BFC1420000AF4200008B420000BB
:10427000794200009D42000001237B6102233B61E3
:104280000123FB610023BB612BE004237B61082336
:104290003B610323FB610223BB6122E010237B61AE
:1042A00020233B610523FB610423BB6119E040230C
:1042B0007B6180233B610723FB610623BB6110E028
:1042C0004FF480737B614FF400733B610923FB6102
:1042D0000823BB6105E042F22F014548FFF754F87F
:1042E00083E0BB79002B64D00023FB73FB79022BA6
:1042F0001AD1FFF73DFA0346002B15D13D4BDB6B7E
:1043000003F48063002B04D142F23E013848FFF7EA
:104310003BF80123FB73384B5B6A03F00103012B6D
:1043200002D10120FFF732FA334A7B69136600BFDE
:10433000B9693248FFF745F80346002BF8D07B797E
:10434000002B52D000BFF9692C48FFF73AF803461A
:10435000002BF8D0FB79022B47D1FB7B002B44D0FC
:10436000254B5B6A03F00103012B05D101222021BB
:10437000022000F087F903E00021022000F028F974
:10438000022000F03DF8B860012200210220FFF772
:1043900059FFB968022000F071F8174A7B6913666B
:1043A00000BFF9691548FFF70CF80346002BF8D059
:1043B0001BE0114A3B69136600BF0F4BD3F89030E6
:1043C0000121BA6901FA02F21340002BF5D17B7981
:1043D000002B0AD000BF084BD3F890300121FA69B6
:1043E00001FA02F21340002BF5D12037BD4680BD03
:1043F0005CF8000000300E4000400E4090400E403F
:1044000080B584B000AF0346FB71FB79013B032B01
:1044100023D801A252F823F0294400004D440000A3
:104420003544000041440000124B1B6AC3F30803EB
:10443000FB601AE00F4B1B6903F07F03FB6014E085
:104440000C4B9B6903F07F03FB600EE0094BD3F834
:104450009C30C3F30A03FB6007E00023FB6042F2D9
:10446000BB010548FEF790FF00BFFB6818461037F8
:10447000BD4680BD00400E405CF8000080B584B0B1
:1044800000AF03463960FB71FB79013B032B00F25F
:104490008C8001A252F823F0A94400005D45000081
:1044A000E9440000234500003B68B3F5007F04D3D6
:1044B00042F2E1014248FEF767FF3B68C3F308039D
:1044C0003B6000BF1A213F48FEF77BFF0346002BED
:1044D000F8D13D4B1B6A23F4FF7323F001033A49E3
:1044E0003A6813430B6266E03B687F2B04D942F2C3
:1044F000EE013348FEF748FF3B6803F07F033B6063
:1045000000BF18212F48FEF75CFF0346002BF8D1AF
:104510002D4B1B6923F07F022B493B6813430B6132
:1045200049E03B687F2B04D942F209112448FEF789
:104530002BFF3B6803F07F033B6000BF192121483C
:10454000FEF73FFF0346002BF8D11F4B9B6923F07A
:104550007F021D493B6813438B612CE01A4BD3F853
:10456000903003F00403002B04D042F218111448D9
:10457000FEF70AFF144B5B6A23F03003124A43F044
:10458000100353623B68DB0903F00F031846FFF783
:10459000D3F8F8600C4B1A6B0C4B13403A681A4373
:1045A0000949FB6813430B6305E042F232110448EA
:1045B000FEF7EAFE00BF00BF1037BD4680BD00BF5A
:1045C0005CF8000040410E4000400E4000F8FF0F34
:1045D00080B584B000AF03460A46FB711346BB7139
:1045E000FB79022B04D042F24A112348FEF7CCFE9D
:1045F000FFF7BEF80346002B03D14FF44003FB60E6
:104600001BE0BB79202B04D0302B0AD0002B04D028
:104610000BE04FF40003FB600FE04FF44003FB603E
:104620000BE04FF44003FB6007E0144BFB6042F2E9
:1046300065111148FEF7A8FE00BF00BF104BD3F86C
:104640009020FB681340FA689A42F7D1FB6803F4A4
:104650008003002B0AD00A4BD3F8A03003F4806308
:10466000002B14BF01230023DBB200E00123184616
:104670001037BD4680BD00BF5CF80000FF33E10786
:1046800000400E4080B582B000AF0346FB710B4680
:10469000BB7113467B71FB79022B15D1BB79002BC3
:1046A00007D00F4B4FF48062C3F8A8200C4ABB79A7
:1046B00053667B79002B0DD0BA79FB7911461846E9
:1046C000FFF786FF034607E042F29B110548FEF71D
:1046D0005BFE00E000BF012318460837BD4680BDE1
:1046E00000400E405CF8000080B483B000AFEFF3F0
:1046F00010833B603B687B6072B67B6818460C3762
:10470000BD465DF8047B704780B483B000AF78602D
:104710007B68002B00D162B600BF0C37BD465DF848
:10472000047B704780B483B000AFEFF310833B602D
:104730003B687B6072B67B6818460C37BD465DF8F7
:10474000047B704780B483B000AF78607B68002B37
:1047500000D162B600BF0C37BD465DF8047B7047E0
:1047600080B400AF064B5B68C3F30803002B14BF93
:1047700001230023DBB21846BD465DF8047B704779
:1047800000ED00E080B487B000AFF860B9607A60F7
:10479000FB6803F10473DA00BB6813449B007B6180
:1047A0007B697A681A6000BF1C37BD465DF8047BE0
:1047B000704780B485B000AF786039607B6803F1E2
:1047C0000473DA003B6813449B00FB60FB681B68C2
:1047D00018461437BD465DF8047B704780B400AFBF
:1047E000064B1B6803F04003002B01D1012300E0BE
:1047F00000231846BD465DF8047B70473C300E40F0
:1048000080B500AFFFF7EAFF034683F00103DBB298
:10481000002B08D100BF12210448FFF7CAFF03464E
:10482000002BF8D100E000BF80BD00BF04300E4077
:1048300080B500AFFFF7E4FF034B5B681B0C03F090
:104840000303DBB2184680BD00300E4080B483B055
:1048500000AF7860044A7B68D36200BF0C37BD4666
:104860005DF8047B704700BF00300E4080B400AF9D
:10487000034B5B6A1846BD465DF8047B704700BF7A
:1048800000300E4080B400AF034B00225A6300BFDB
:10489000BD465DF8047B704700300E4080B400AF29
:1048A000044B4AF6E8525A6300BFBD465DF8047BEC
:1048B000704700BF00300E4080B483B000AF0346A5
:1048C000FB71FB79C3F10203102202FA03F31846CD
:1048D0000C37BD465DF8047B7047000080B584B09E
:1048E00000AF78600B46FB70FFF778FF034683F05C
:1048F0000103DBB2002B28D17B68002B0FD1154BB5
:10490000D3F800311B0A03F01F030133BB60FBF730
:104910009FFD0246BB6802FB03F3FB6001E07B687E
:10492000FB600D4B1B78002B09D0FB680B4A9342B0
:1049300005D8FB781946022000F012F806E0FB7853
:104940001946002000F00CF800E000BF1037BD460B
:1049500080BD00BF00400E4034550020002D3101C5
:1049600090B587B000AF03460A46FB711346BB7192
:10497000FFF734FF034683F00103DBB2002B3AD18B
:10498000FFF756FF03461A46FB79934235D01D4B7D
:10499000D3F800311B0A03F01F0301337B61FBF7DF
:1049A00057FD38613B697A6902FB03F3FB60FB79D1
:1049B000022B0CD1FB68144A934204D940F2B25145
:1049C0001248FEF7E1FC02213869FEF795FE104C13
:1049D000FB791846FFF770FF03462361BB79002B74
:1049E00001D0FFF70DFFFB79002B07D100213869BB
:1049F000FEF782FE02E000BF00E000BF1C37BD46AC
:104A000090BD00BF00400E40002D3101E8F80000CD
:104A100000300E4080B582B000AF78600E4B1B684E
:104A200023F440727B685B781B020B4913430B60D5
:104A30007B685B78022B0AD1084B5B6A03F000535A
:104A4000002B04D040F2EE510548FEF79DFC00BF5C
:104A50000837BD4680BD00BF00300E4000400E400C
:104A6000E8F8000080B400AF01231846BD465DF8A9
:104A7000047B704780B582B000AF0C4BDB6E0B4AF5
:104A800043F08073D36600210948FFF792FE7860F7
:104A90007B68002B03D0042000F04EFD02E00020D4
:104AA00000F04AFD00BF0837BD4680BD00300E4013
:104AB0004C300E4080B58AB000AF01237B627B6A28
:104AC0001B053B62404BDB6C1B0A03F00F03FB61D1
:104AD0003E4B1B881A463D4B1B8828335B0813440A
:104AE00003F12801FB695A1C13469B001344B1FBD8
:104AF000F3F3013BBB61BB697B6107233B613A690F
:104B00007B69934228BF1346BB61BB691B06BB612F
:104B1000BB6923F0E063002B04D04FF4FA612C480A
:104B2000FEF732FC3B6A23F4E003002B04D040F292
:104B3000D1712748FEF728FC234BDB6C23F0EE6293
:104B4000B9693B6A0B4320491343CB64214BB3F94A
:104B50000030002B33DB1F4BB3F90030FB81FA89A7
:104B6000FB8928335B08134403F12802FB690133F6
:104B70005900FB6901335B080B44B2FBF3F3BB60E4
:104B8000BB687B6007233B603A687B68934228BF21
:104B90001346BB60BB681B01BB60BB6823F070039E
:104BA000002B04D040F2E9710948FEF7EDFB064BFB
:104BB0001B6D23F070020449BB6813430B6500BFF3
:104BC0002837BD4680BD00BF00300E402C55002068
:104BD000E8F800003055002080B483B000AF786062
:104BE0000B467B807B689AB2054B1A80054A7B880E
:104BF000138000BF0C37BD465DF8047B704700BFD3
:104C00002C5500203055002080B582B000AF0346FF
:104C1000FB71FB79002B02D0012B04D007E0094B7C
:104C2000094A9A6509E0074B084A9A6505E040F68B
:104C300015010748FEF7A8FB00BF00BF0837BD46B7
:104C400080BD00BF00300E4077402057372110B79D
:104C5000E8F8000080B584B000AF0346FB710B4656
:104C6000BB7113467B71334BD3F88031FB60BB794A
:104C7000032B1DD801A252F823F000BF8D4C000079
:104C8000954C00009F4C0000A94C0000FB68DBB273
:104C9000FB6014E0FB681B0ADBB2FB600FE0FB6803
:104CA0001B0CDBB2FB600AE0FB681B0EFB6006E03E
:104CB00040F659012048FEF767FB002336E07B7978
:104CC000002B16D1FB681B03FB60FB6823F47043C9
:104CD000002B06D040F664011748FEF755FB002371
:104CE00024E0164BDB6E23F470421449FB68134337
:104CF000CB667B79012B18D1FB681B03FB60FB683B
:104D000023F47043002B06D04FF407610A48FEF7E6
:104D10003BFB00230AE0094BD3F8EC3023F470424C
:104D20000649FB681343C1F8EC30012318461037DD
:104D3000BD4680BDB081E00FE8F8000000300E40B5
:104D400080B588B000AFF860B96011461A460B46CE
:104D5000FB711346BB710023FB610023BB61BB7970
:104D60001B02FA79002A01D0012200E0002213433D
:104D70007B617B6940F2011293422AD0B3F5817FB7
:104D800007D2012B19D0012B47D3B3F5807F50D028
:104D900073E040F20122934227D040F20122934275
:104DA00003D8B3F5007F50D067E0B3F5407F58D00B
:104DB00040F20132934224D05FE0384BD3F8743193
:104DC000FB61FB691B0ADBB2BB61FB69DBB2FB6108
:104DD00059E0324BD3F87431FB61FB691B0EBB61A8
:104DE000FB691B0CDBB2FB614DE02C4BD3F8783137
:104DF000FB61FB691B0ADBB2BB61FB69DBB2FB61D8
:104E000041E0264BD3F87831FB61FB691B0EBB6197
:104E1000FB691B0CDBB2FB6135E0204BD3F86C3136
:104E2000FB61FB691B0ADBB2BB61FB69DBB2FB61A7
:104E300029E01A4BD3F86C31FB61FB691B0EBB6197
:104E4000FB691B0CDBB2FB611DE0144BD3F8703126
:104E5000FB61FB691B0ADBB2BB61FB69DBB2FB6177
:104E600011E00E4BD3F87031FB61FB691B0EBB6187
:104E7000FB691B0CDBB2FB6105E040F6D50108487D
:104E8000FEF782FA00BFFB68FA691A60BB68BA696C
:104E90001A6000BF2037BD4680BD00BFB081E00F63
:104EA000E8F8000080B584B000AF0346FB713E4BCC
:104EB0005B6B012B0CBF01230023FB73FFF7EEFCA0
:104EC00000BF394B9B6F03F00103002BF9D1364B28
:104ED0001B6C03F00303BB60BB68002B04D00122F2
:104EE0000D213248FFF74EFCBB68DBB2FA799A42DB
:104EF00008D1FB79002B53D100220D212B48FFF75D
:104F000041FC4DE0BB68032B02D0BB68002B20D1D5
:104F1000FB79022B02D0FB79012B1AD14FF4002030
:104F2000FFF794FC00BF204B9B6F03F00103002BA5
:104F3000F9D11D4B1B6C23F003031B4A43F0010303
:104F4000136400BFFFF792FC034603F40023002B19
:104F5000F8D000BF144B9B6F03F00103002BF9D175
:104F6000114B1B6C23F00302FB790F4913430B64B5
:104F700000BF0D4B9B6F03F00103002BF9D1FB79B0
:104F8000002B14BF01230023DBB21A460D21074872
:104F9000FFF7F8FBFB7B002B03D0FFF773FC00E06F
:104FA00000BF1037BD4680BD00300E4054300E406B
:104FB00080B584B000AF78606B4B02229A636A4B75
:104FC0009B6B03F00F03022B06D040F67711674866
:104FD000FEF7DAF90023C3E0FFF744FD7B681B8985
:104FE000C82B04D940F681116048FEF7CDF97B68E3
:104FF0009A887B681B899A4204D940F682115B48E3
:10500000FEF7C2F97B68B3F90C30C82B04DD40F61B
:1050100083115648FEF7B8F97B685B78012B09D1FC
:105020007B689B88C82B12D940F687114F48FEF742
:10503000ABF90CE07B685B78022B08D17B689B881E
:105040000A2B04D940F68C114848FEF79DF97B687D
:10505000DB8842F21072934204D940F6941143481F
:10506000FEF792F97B68DB884A2B02D80023FB60AD
:1050700015E07B68DB88B3F5FA7F03D24FF08053ED
:10508000FB600CE07B68DB8840F6C312934203D8D8
:105090004FF00053FB6002E04FF04053FB60324B97
:1050A000DB6C23F0405323F001037A68B2F90C2043
:1050B000002A01DB012100E00021FA680A432A49A5
:1050C0001343CB64284BD3F8EC30274A43F44073A6
:1050D000C2F8EC307B689A88254B1A80FFF7CAFC2F
:1050E0007B681B891A467B68B3F90C301946104659
:1050F000FFF772FD7B689B88184600F0A9F97B6872
:105100009B7B1846FFF780FD7B685B8801220121AD
:10511000184600F031F8034683F00103DBB2002BA0
:1051200006D040F6CB111148FEF72EF9002317E008
:105130000D4BDB6B0C4A43F48063D3637B685B7875
:105140001846FFF7AFFE7B689B7A202B01D1012325
:1051500000E000231A4605210648FFF713FB012350
:1051600018461037BD4680BD00300E40E8F80000FC
:105170002E5500203C300E4090B595B000AF7860C1
:105180000B46FB701346BB700023FB6400237B645B
:1051900007F1240300221A605A609A6007F118038D
:1051A00000221A605A609A6007F10C0300221A600C
:1051B0005A609A6007F1080300210A461A800A46DD
:1051C0009A707B68B3F5E16F06D37B6840F6B8321E
:1051D000934201D8012300E0002387F8433097F879
:1051E000433003F0010387F8433097F8433083F0EE
:1051F0000103DBB2002B06D04FF421619148FEF78A
:10520000C3F8002319E17B68B3F5E16F8CBF01237C
:10521000002387F8423097F84230002B0AD04FF431
:10522000E163FB6440F6B8337B647A6CFB6CD31AA1
:10523000BB6409E04FF49663FB644FF4E1637B6465
:105240007A6CFB6CD31ABB6497F84230002B0BD0FE
:105250007D4BD3F868313B623B6A1B0E7B613B6A36
:105260001B0CDBB23B620AE0774BD3F868313B6240
:105270003B6A1B0ADBB27B613B6ADBB23B62734B6E
:10528000DB6C1B0FDBB203F00303DBB23B723B7A38
:1052900097F8422007F10C0107F11800FFF750FDC5
:1052A0006A4BD3F8EC301B0ADBB203F00303DBB22A
:1052B0007B727C7A97F8422007F10C03191D07F1E5
:1052C0001803181D2346FFF73BFD7A68FB6CD31AC1
:1052D00079693A6A8A1A02FB03F2BB6CB2FBF3F3F8
:1052E000FB62FA6A3B6A1344FB627A68FB6CD31A6E
:1052F000F968BA698A1A02FB03F2BB6CB2FBF3F3DA
:105300007B627A6ABB6913447B627A68FB6CD31A4E
:105310003969FA698A1A02FB03F2BB6CB2FBF3F338
:10532000BB62BA6AFB691344BB62FA6A7B699A4240
:1053300013D8FA6A3B6A9A420FD3BA6A3B699A4217
:105340000BD8BA6AFB699A4207D37A6AFB689A4219
:1053500003D87A6ABB699A4206D240F65E21394880
:10536000FEF712F8002368E0BB78002B12D0374B11
:10537000DB6D23F4FE4323F00203FA6A12021343A7
:1053800097F84220002A01D0022200E000222F4993
:105390001343CB65FB78002B4ED0397A97F8423017
:1053A00000221846FFF756FC034683F00103DBB2E8
:1053B000002B06D040F66D212248FDF7E5FF0023C3
:1053C0003BE0797A97F8423001221846FFF742FC19
:1053D000034683F00103DBB2002B06D040F67521B3
:1053E0001848FDF7D1FF002327E07B6AFB63BB6A07
:1053F000BB63BA6BFB6B934238BF13467B627B6A1D
:105400007B63E7233B633A6B7B6B934228BF134676
:105410007B620E4B5B6E23F4FF7323F001037A6A09
:105420005200134397F84220002A01D0012200E0E5
:105430000022064913434B66012318465437BD46E4
:1054400090BD00BFE8F80000B081E00F00300E40D2
:1054500080B584B000AF78600023FB60344B1B6FD5
:1054600003F00703BB60324BDB6C03F00103002B3E
:1054700014D0BB68012B11D97B68132B02D80423ED
:10548000FB603DE07B68132B05D97B68272B02D896
:105490000823FB6034E01023FB6031E0244BDB6C1D
:1054A00003F00103002B14D1BB68012B11D87B68DA
:1054B000092B02D80423FB6022E07B68092B05D965
:1054C0007B68132B02D80823FB6019E01023FB60D4
:1054D00016E0174BDB6C03F00103002B0BD0BB680D
:1054E000012B08D87B68272B02D80823FB6007E034
:1054F0001023FB6004E040F6B3210E48FDF744FFA3
:10550000FB68013BFB60FB681A02FB681B0313434B
:10551000FB60074BDB6C23F47F420549FB681343B8
:10552000CB64FFF7C7FA00BF1037BD4680BD00BF90
:1055300000300E40E8F8000080B584B000AF0346AC
:10554000FB7100211148FFF734F9F860FB68002B6C
:1055500002D1FB79012B07D9FB68002B04D140F65F
:10556000D2210B48FDF710FF0A4B1B6F23F00702F7
:10557000FB79084913430B67074B1B881846FFF755
:1055800067FF00BF1037BD4680BD00BF4C300E40E6
:10559000E8F8000000300E402E55002080B487B09F
:1055A00000AFF860B9607A60FB6803F10473DA0059
:1055B000BB6813449B007B617B697A681A6000BFFB
:1055C0001C37BD465DF8047B704780B485B000AFE2
:1055D000786039607B6803F1C063FB60FB683A6800
:1055E0001A6000BF1437BD465DF8047B704780B475
:1055F00085B000AF786039607B6803F18063FB6041
:10560000FB683A681A6000BF1437BD465DF8047B3A
:10561000704780B584B000AFF860B9607A60B9684F
:10562000F868FFF7E4FF7968F868FFF7CEFF00BF7E
:105630001037BD4680BD000080B483B000AF7860F5
:10564000044A7B68C2F8243400BF0C37BD465DF8BD
:10565000047B704700A0004080B582B000AF0346D5
:105660003960FB71FB79002B38D0FB79012B32D0EC
:10567000FB79022B2CD0FB79032B26D0FB79042B52
:1056800021D0FB79052B1BD0FB79062B16D0FB799B
:10569000072B11D0FB79082B0CD0FB79092B06D0F6
:1056A000FB790A2B01D107231AE0002318E04FF4FD
:1056B000404315E00F2313E0002311E000230FE027
:1056C0004FF6FF730CE000230AE04FF47F4307E03E
:1056D00040F6FF7304E04FF6C07301E040F2FF3381
:1056E0003A68134103F00103002B04D14FF47771A2
:1056F0000C48FDF749FEFA7913465B0013441B0181
:105700000C3303F1804303F5204301213A6801FA89
:1057100002F211461846FFF76AFF00BF0837BD4680
:1057200080BD00BF4CF9000080B582B000AF0346D9
:105730003960FB71FB79002B38D0FB79012B32D01B
:10574000FB79022B2CD0FB79032B26D0FB79042B81
:1057500021D0FB79052B1BD0FB79062B16D0FB79CA
:10576000072B11D0FB79082B0CD0FB79092B06D025
:10577000FB790A2B01D107231AE0002318E04FF42C
:10578000404315E00F2313E0002311E000230FE056
:105790004FF6FF730CE000230AE04FF47F4307E06D
:1057A00040F6FF7304E04FF6C07301E040F2FF33B0
:1057B0003A68134103F00103002B04D140F20B417E
:1057C0000C48FDF7E1FDFA7913465B0013441B0119
:1057D0000C3303F1804303F5204301213A6801FAB9
:1057E00002F211461846FFF7F0FE00BF0837BD462B
:1057F00080BD00BF4CF9000080B582B000AF034609
:105800003960FB71FB79002B1DD0FB79012B1AD07D
:10581000FB79022B17D0FB79032B14D0FB79042BD7
:1058200016D0FB79052B0ED0FB79062B10D0FB7917
:10583000072B0DD0FB79082B05D0FB79092B02D063
:10584000FB790A2B04D13B6823F00113002B03D012
:1058500082210B48FDF798FDFA7913465B0013444B
:105860001B0103F1804303F520433A684FF0011117
:105870001846FFF7CEFE00BF0837BD4680BD00BF0B
:10588000B0F9000080B586B000AFB9607A601A4602
:105890000346FB731346BB7300237B61FB7B002B2A
:1058A00038D0FB7B012B32D0FB7B022B2CD0FB7B37
:1058B000032B26D0FB7B042B21D0FB7B052B1BD09D
:1058C000FB7B062B16D0FB7B072B11D0FB7B082B19
:1058D0000CD0FB7B092B06D0FB7B0A2B01D10723C5
:1058E0001AE0002318E04FF4404315E00F2313E0C3
:1058F000002311E000230FE04FF6FF730CE00023BC
:105900000AE04FF47F4307E040F6FF7304E04FF6F0
:10591000C07301E040F2FF33BA68134103F00103A2
:10592000002B03D1C4213A48FDF72EFD7A68BB68ED
:10593000534023F00303002B03D0C6213448FDF766
:1059400023FD7B68072B0ED87B689B000F2202FA91
:1059500003F1FA7B7B689B0002FA03F31A462D4899
:10596000FFF757FE10E07B68083B7B617B699B007B
:105970000F2202FA03F1FA7B7B699B0002FA03F320
:105980001A462548FFF745FE7B68072B10D87B6831
:105990009B00032202FA03F1BB6803F003027B6859
:1059A0009B0002FA03F31A461C48FFF732FE0FE091
:1059B0007B699B00032202FA03F1BB6803F0030238
:1059C0007B699B0002FA03F31A461548FFF721FE94
:1059D000BB7B1A4679681348FFF7E0FD97F8203043
:1059E0001A4679681048FFF7D9FD01227B6802FA50
:1059F00003F31846FFF720FE97F824301A4679681B
:105A00000A48FFF7CBFD00BF1837BD4680BD00BF79
:105A1000B0F9000000A4004004A4004008A4004025
:105A20000CA4004010A4004014A4004028A400408E
:105A300080B584B000AFB9607B600346FB7313464A
:105A4000BB73FB7B002B38D0FB7B012B32D0FB7B65
:105A5000022B2CD0FB7B032B26D0FB7B042B21D0ED
:105A6000FB7B052B1BD0FB7B062B16D0FB7B072B70
:105A700011D0FB7B082B0CD0FB7B092B06D0FB7BCA
:105A80000A2B01D107231AE0002318E04FF440430A
:105A900015E00F2313E0002311E000230FE04FF681
:105AA000FF730CE000230AE04FF47F4307E040F669
:105AB000FF7304E04FF6C07301E040F2FF33BA68B1
:105AC000134103F00103002B04D140F21B113948AC
:105AD000FDF75AFCBB7B002B0DD07B68002B05D05B
