:1000000000000420CD030000F9030000F903000004
:10001000F9030000F9030000F9030000F9030000F0
:10002000F9030000F9030000F9030000F9030000E0
:10003000F9030000F803000043D8000035E6000093
:10004000F9030000F9030000F9030000F9030000C0
:10005000F9030000F9030000F9030000F9030000B0
:10006000F9030000F90300007DE80000B505000079
:10007000F9030000F9030000F9030000F903000090
:10008000F9030000F903000089E80000F90300000B
:10009000F9030000F9030000F9030000F903000070
:1000A000F9030000F9030000F9030000F903000060
:1000B000F9030000F90300009BE50000F9030000CC
:1000C000F9030000F9030000F9030000F903000040
:1000D000F9030000F9030000F9030000F903000030
:1000E000F9030000F9030000F9030000F903000020
:1000F000F9030000F9030000F9030000F903000010
:10010000F9030000F9030000F903000010B5054CE5
:10011000237833B9044B13B10448AFF300800123B3
:10012000237010BDB80200200000000088470100C5
:1001300008B5034B1BB103490348AFF3008008BD6A
:1001400000000000BC02002088470100154B002B76
:1001500008BF134B9D46A3F5803A00218B460F46FE
:100160001348144A121A0FF070FB0F4B002B00D0EB
:1001700098470E4B002B00D0984700200021040028
:100180000D000D48002802D00C48AFF300800FF09E
:100190000DFB200029000EF02DFE0FF0F3FA00BF3A
:1001A0000000080000000420000000000000000023
:1001B000B8020020B0C100200000000000000000D4
:1001C00080B582B000AF0121104805F0FFF8012191
:1001D0000F4805F0FBF800237B600FE00D4A7B68B9
:1001E00012F833000B4A7B68DB0013445968002384
:1001F000042207F0DDFB7B6801337B607B68012B09
:10020000ECDD002318460837BD4680BD404105009F
:1002100000350A003007010080B582B000AF00F061
:10022000EDF878600A4B1B68094A43F0807313604D
:10023000084B00221A60084B1B68074A43F0010371
:100240001360786804F086FC00BF0837BD4680BDA7
:10025000FCED00E0041000E0001000E080B483B08A
:1002600000AF054B1B687B607B6818460C37BD46AA
:100270005DF8047B704700BF041000E0B0B586B0A5
:1002800000AF786000F0BAF803464FF00004C7E909
:1002900004347B681C464FF00005D7E904010B4A83
:1002A0004FF000030FF0EEF802460B4620462946B9
:1002B0000FF0E8F803460C46C7E90234D7E90234E8
:1002C000184621461837BD46B0BD00BF40420F005A
:1002D00080B400AF044BDB6C1B0EDBB21846BD468E
:1002E0005DF8047B704700BFB081E00F80B582B03D
:1002F00000AF164B01225A64FFF7EAFF0346FB7179
:10030000FB79002B0CD1124B4AF6E8521A60114BC4
:100310001B68104A43F0040313600D4B00221A605F
:10032000FB79012B05D80C4B1B680B4A43F4005397
:1003300013600A4B1B6A23F44413084A43F48813DE
:10034000136200BF0837BD4680BD00BF00000E40ED
:1003500090310E4098310E4064310E4000400E4006
:1003600080B584B000AF1123FB60FFF7BFFF1048DA
:1003700006F0DEFD0521F86805F0EEFC01210D48D0
:1003800005F024F80123FB720323BB720A4B7B6048
:10039000FB7A00220121184605F014FFBB7A1946AA
:1003A000786805F0D9FC00BF1037BD4680BD00BF9E
:1003B0004007010000250A000500240080B400AFBA
:1003C00000BFBD465DF8047B7047000006488047CB
:1003D0000649074A074B9A42BEBF51F8040B42F840
:1003E000040BF8E7FFF7B2FEF104000094470100A8
:1003F00000000020B8020020FEE700BF80B582B0F8
:1004000000AF00F025F878600A4BD3F808311B0ADA
:10041000C3F308033B603B6801337A68B2FBF3F334
:100420007B60054A7B6813607B6818460837BD46C9
:1004300080BD00BF00400E400800002080B400AF27
:10044000024B1846BD465DF8047B7047005A6202B5
:1004500080B483B000AF1C4BD3F8943003F0070393
:10046000023B032B1BD801A252F823F08D0400009D
:10047000850400007D04000095040000134B1B68F8
:100480007B6010E04FF400437B600CE0104B1B6876
:100490007B6008E00F4B1B685B087B6003E00D4B43
:1004A0001B687B6000BF084BD3F800311B0A03F0C8
:1004B0001F0301337A68B2FBF3F318460C37BD46CD
:1004C0005DF8047B704700BF00400E400400002030
:1004D000000000200C00002080B400AF034B1B681C
:1004E0001846BD465DF8047B704700BF0000002041
:1004F00080B400AF074B084A9A60064BD3F88830A7
:10050000044A43F47003C2F8883000BFBD465DF86A
:10051000047B704700ED00E00000000080B400AFF5
:100520004FF400431846BD465DF8047B704780B425
:1005300000AF4FF47A731846BD465DF8047B7047F0
:1005400080B400AF034B1B681846BD465DF8047BC2
:10055000704700BF0400002080B483B000AF0346A2
:10056000FB7197F90730002B0BDBFB7903F01F02BF
:10057000074997F907305B09012000FA02F241F8B8
:10058000232000BF0C37BD465DF8047B704700BFD9
:1005900000E100E080B400AF054B1B69044A23F082
:1005A0000403136130BF00BFBD465DF8047B704794
:1005B00000ED00E080B483B000AF174B02225A6018
:1005C000164B02225A60144B01225A61134B5B6A8C
:1005D0007B60134B1B78DBB21946124A7B6842F8EA
:1005E00021300F4B1B78DBB21A460F4B53F82230E9
:1005F0007A689A4207D90A4B1B78DBB219460A4A35
:100600007B6842F82130094B01221A7000BF0C3779
:10061000BD465DF8047B70470080014000840140C6
:10062000D4020020D8020020E8020020D5020020D9
:1006300080B485B000AF0346FB71FB790D4A52F8D8
:100640002330FB60FB790B4A52F823309B08FA6891
:10065000D31AFB60FB79084A52F82330FA689A42B1
:1006600001D9012300E0002318461437BD465DF888
:10067000047B7047E8020020D802002080B582B0D9
:1006800000AF0346FB71FB7919464FF0804004F040
:1006900029FB0F4B00225A620E4B00225A620E4B6E
:1006A00000221A700A4B01225A600A4B01225A603A
:1006B00001E0FFF76FFF084B1B78DBB283F001030B
:1006C000DBB2002BF5D100BF0837BD4680BD00BFAF
:1006D0000080014000840140D502002080B500AFB9
:1006E0004FF0804004F040FB0F4B00221A700FE0E7
:1006F0000D4B1B78DBB21A460C4B9B5C1846FFF780
:10070000BDFF094B1B78DBB20133DAB2064B1A701E
:10071000054B1B78DBB2032BEAD94FF0804004F085
:1007200003FB00BF80BD00BFD402002050070100C2
:10073000B0B586B000AF224B3C461D460FCD0FC46E
:1007400095E8030084E8030001211E4804F03EFE02
:1007500001211D4804F03AFE01211C4804F036FE38
:1007600001211B4804F032FE01211A4804F02EFE3C
:10077000194B4FF010621A60174B0A22DA61164BC0
:1007800001229A61144B00225A62144B144A1A60D7
:10079000124B4FF6FF72DA61104B124A1A67124B76
:1007A000124A1A653B4619464FF0804004F03CFA65
:1007B0000B20FFF7D1FE00BF1837BD46B0BD00BF0C
:1007C000540701004041050000020400001204002B
:1007D00000A2040000450A0000800140008401409E
:1007E0000000010A0100002A00600E400003100012
:1007F00080B58CB000AF00F009FB00F09BFA00F070
:100800001FFB002300220821022000F029FB002307
:1008100000220621022000F023FB002300220E21EB
:10082000032000F01DFB002300220F21032000F015
:1008300017FB002300220D21032000F011FB802272
:100840000D21032000F050FBF862FB6A002B01D061
:10085000FB6A27E0154B3B6001233B7400237B744C
:1008600080237B608023FB607B68BB60104B7B61D7
:10087000104BBB61104BFB61104B3B62104B7B621A
:10088000104BBB623B4618460EF07EFAF862FB6ADC
:10089000002B06D13B460121184600F024F800F059
:1008A00039F8FB6A18463037BD4680BD6C07010039
:1008B000E70800005D090000CD0900003D0A0000C6
:1008C000E9090000C908000080B584B000AF786075
:1008D0000023FB6000F09AFA00F02CFAFB6818463F
:1008E0001037BD4680BD80B582B000AF78600B4642
:1008F000FB70FB78002B04D00F21032000F0D0FA0E
:1009000003E00F21032000F0DDFA0023184608372A
:10091000BD4680BD80B582B000AF0E21032000F03F
:10092000BFFA062000F07EFA0B4B1B7843F004035D
:10093000DBB29BB2FB80BB1D0221184600F02CFAF3
:10094000022000F06FFA0E21032000F0BBFA002312
:1009500018460837BD4680BDF802002080B487B035
:1009600000AFF860B9607A603B60BB68DA087B680A
:1009700002FB03F37B61BB68802B01D00F4B16E0B9
:100980000F4B1A687B6913440E4A934204D93B68A3
:1009900000221A600C4B0AE0094B1A683B681A6087
:1009A000074B1A687B691344054A136000231846F5
:1009B0001C37BD465DF8047B704700BF0200118004
:1009C000100000207C0300200100118080B483B05F
:1009D00000AF78603960034B18460C37BD465DF8B0
:1009E000047B70470400118080B588B000AFF860C8
:1009F000B9607A603B60BB68FB61FB681B7C012BC4
:100A000002D10023FB7601E0FF23FB7600237B610C
:100A10000BE0FB7E10221946F8690EF016FFFB6909
:100A20001033FB617B6901337B617A693B689A42D1
:100A3000EFD3002318462037BD4680BD80B588B06F
:100A400000AFF860B9607A603B60BB68BB61BB6AAD
:100A50000133BB620E21032000F022FA062000F0D1
:100A6000E1F9BB6A9BB21B029BB243F001039BB24C
:100A7000FB8207F116030221184600F08DF90023CE
:100A8000FB6126E01021B86900F086F9BB691033DC
:100A9000BB61FB6A013BFA699A4203D14FF6FF73CF
:100AA000FB820DE0BB6A9AB2FB699BB213449BB216
:100AB00001339BB21B029BB243F0FF039BB2FB824C
:100AC00007F116030221184600F066F9FB690133AD
:100AD000FB61FA69FB6A9A42D4D3022000F0A2F9C2
:100AE0000E21032000F0EEF9002318462037BD4602
:100AF00080BD80B485B000AF786039607B6803F159
:100B0000C063FB60FB683A681A6000BF1437BD46DB
:100B10005DF8047B704780B485B000AF78603960C1
:100B20007B6803F18063FB60FB683A681A6000BF72
:100B30001437BD465DF8047B7047000080B582B075
:100B400000AF03463960FB71FB79002B38D0FB798D
:100B5000012B32D0FB79022B2CD0FB79032B26D032
:100B6000FB79042B21D0FB79052B1BD0FB79062BBD
:100B700016D0FB79072B11D0FB79082B0CD0FB7911
:100B8000092B06D0FB790A2B01D107231AE0002399
:100B900018E04FF4404315E00F2313E0002311E069
:100BA00000230FE04FF6FF730CE000230AE04FF440
:100BB0007F4307E040F6FF7304E04FF6C07301E0A7
:100BC00040F2FF333A68134103F00103002B04D1D4
:100BD0004FF477710C4804F0E7F8FA7913465B009C
:100BE00013441B010C3303F1804303F5204301211F
:100BF0003A6801FA02F211461846FFF78CFF00BF6F
:100C00000837BD4680BD00BF8407010080B582B0B3
:100C100000AF03463960FB71FB79002B38D0FB79BC
:100C2000012B32D0FB79022B2CD0FB79032B26D061
:100C3000FB79042B21D0FB79052B1BD0FB79062BEC
:100C400016D0FB79072B11D0FB79082B0CD0FB7940
:100C5000092B06D0FB790A2B01D107231AE00023C8
:100C600018E04FF4404315E00F2313E0002311E098
:100C700000230FE04FF6FF730CE000230AE04FF46F
:100C80007F4307E040F6FF7304E04FF6C07301E0D6
:100C900040F2FF333A68134103F00103002B04D103
:100CA00040F20B410C4804F07FF8FA7913465B00E0
:100CB00013441B010C3303F1804303F5204301214E
:100CC0003A6801FA02F211461846FFF712FF00BF18
:100CD0000837BD4680BD00BF8407010080B582B0E3
:100CE00000AF786039607B68022B04D94FF4D5716E
:100CF000074804F059F8074A7B6804331B01134482
:100D000004333A681A6000BF0837BD4680BD00BF93
:100D1000E80701000020044080B582B000AF786091
:100D2000396039687868FFF7D9FF00BF0837BD46DA
:100D300080BD0000B0B588B000AF0023FB61124B4E
:100D40003C1D1D460FCD0FC495E8030084E8030049
:100D500001210E4804F03AFB0D4BFB603B1D194688
:100D60000C4807F037F80B4B0A225A67094B9B6F68
:100D700023F01F23074A43F00B239367FB691846B0
:100D80002037BD46B0BD00BF4C0801000052040032
:100D9000E0C810000004014080B584B000AF786066
:100DA00039600023FB6020E03B68012B04D07B68A6
:100DB00003F00103002B0CD07B681B781946124806
:100DC00007F0FEF83B68013B3B607B6801337B60CA
:100DD0000BE07B681B8819460B4807F007F93B6856
:100DE000023B3B607B6802337B603B68002BDBD1BE
:100DF00000BF054B1B6903F02003002BF9D0FB68F3
:100E000018461037BD4680BD0004014080B582B051
:100E100000AF00237B6000F04DFF7B681846083769
:100E2000BD4680BD80B584B000AF78600023FB6014
:100E3000786801F005F8FB6818461037BD4680BD9C
:100E400080B582B000AF00237B600121034804F02D
:100E5000BDFA7B6818460837BD4680BD00350A00DC
:100E600080B586B000AFF860B9603B601346FB7197
:100E700000237B61FB79002B0BD10423FB7400BFA3
:100E8000FB68D8B2FA7C3B68B96806F091FD7B69D3
:100E900000E0024B18461837BD4680BD01001380A4
:100EA00080B584B000AF786039600023FB607B6858
:100EB000DBB239681846FFF7A9FEFB681846103701
:100EC000BD4680BD80B584B000AF78603960002336
:100ED000FB607B68DBB239681846FFF72FFEFB68C2
:100EE00018461037BD4680BD80B588B000AFF860A9
:100EF000B9607A600023FB614FF43063BB61022369
:100F00007B610121124804F061FA7A69B969042011
:100F100006F014FE0F4B5B6923F007030D4A43F004
:100F2000040353610B4B9B680A4A43F01003936020
:100F3000FB68D8B200230422B96806F039FD78684E
:100F400000F01CF8FB6918462037BD4680BD00BF85
:100F500000450A0000600E4080B582B000AF7860A6
:100F60000121054804F032FA0321786804F0F4FE08
:100F700000BF0837BD4680BD00250A0080B588B097
:100F800000AF7860214A07F1140307CA03C31A703F
:100F900000233B761E48FFF7DFFF01211D4804F0C8
:100FA00015FA00233B7500237B750123FB7507F1C0
:100FB0001403184606F078FE174A07F10C0392E86E
:100FC000030018600433198002330A0C1A700123DD
:100FD0007B7307F10C031946012006F015FE0D483E
:100FE00004F060FA02467B68B2FBF3F3013B19465A
:100FF0000120FFF791FE094B00229A60012006F0C4
:1010000041FE00BF2037BD4680BD00BF640801001F
:1010100005002400A009140070080100002004400D
:1010200080B483B000AF7860002318460C37BD460B
:101030005DF8047B704780B483B000AF7860FEE752
:1010400080B483B000AF786039603B684FF40052E1
:101050005A60002318460C37BD465DF8047B704784
:1010600080B485B000AFF860B9607A60002318469C
:101070001437BD465DF8047B704780B586B000AF7D
:10108000F860B9607A6000237B610FE000F06EF8D1
:1010900038613B69B3F1FF3F0ED0BB685A1CBA60A0
:1010A0003A69D2B21A707B6901337B617B685A1E40
:1010B0007A60002BEAD100E000BF7B69002B02DCE4
:1010C0004FF0FF3300E07B6918461837BD4680BDFE
:1010D00080B485B000AF78600B4B1B68002B02D149
:1010E000094B0A4A1A60084B1B68FB60064B1A68DA
:1010F0007B681344044A1360FB6818461437BD46E6
:101100005DF8047B704700BF7C030020B0C1002065
:1011100080B58EB000AF07F10803194600200DF02E
:1011200003FE78637B6B002B16D100233B6000230A
:101130003B7101237B713B460A49184600F03AF89F
:1011400078637B6B002B07D1074B1B6898680023E3
:10115000022200210EF082FB7B6B18463837BD4619
:1011600080BD00BF80030020E000002080B400AFFD
:101170004FF0FF331846BD465DF8047B7047000012
:1011800080B582B000AF7860084B1B68002B07D099
:10119000064B1B687968184600F0F2F8034600E039
:1011A000034B18460837BD4680BD00BF80030020B2
:1011B0000600128090B587B000AF786039600023D8
:1011C0007B6100233B6117E0684A3B69582101FBC2
:1011D00003F3134455331B7883F00103DBB2002B78
:1011E00007D03B69582202FB03F3604A13447B613A
:1011F00005E03B6901333B613B69002BE4DD7B6922
:10120000002B01D15A4BADE07B681A687B6904332F
:10121000194610460DF088FDB860BB68002B01D060
:10122000BB689FE07B695B7D002B1FD17B69DC691C
:101230007B69181D7B6999687B693C330822A0474C
:10124000B860BB68002B01D0BB688BE07B699C6AEF
:101250007B69181D7B69D96B7B699A680823A04755
:10126000B860BB68002B04D0BB687BE07B690022C0
:10127000DA63404A3B691B0113441A687B691B69A6
:10128000DB089A4201D93C4B6CE03A4A3B691B01AE
:10129000134404331A687B699B683849A1FB031324
:1012A0009B089A4201D9344B5CE0324A3B691B01EE
:1012B00013441A687B695A632E4A3B691B01134425
:1012C00004331A687B691A632A4A3B691B01134479
:1012D00008331A687B691A64264A3B691B01134468
:1012E0000C331A687B695A647B681A687B691A60D8
:1012F0007B681A797B6983F838207B685A797B6927
:1013000083F839200023FB6010E07B69196C7B694E
:101310001B6BFA6802FB03F27B69586CFB689B004D
:1013200003440A441A60FB680133FB607B695B6B12
:10133000FA689A42E9D37B69002283F848207B69E6
:10134000002283F849207B69002283F84A207869CB
:1013500000F0BEF87B69012283F855203B687A696A
:101360001A60002318461C37BD4690BD8403002038
:10137000050012801400002002001280ABAAAAAA65
:1013800080B586B000AF786039607B683B6105222C
:101390004D4938680EF040FB0346002B04D13869F4
:1013A00000F096F800238BE00023FB753B6993F86F
:1013B000553083F00103DBB2002B01D0434B7FE0BB
:1013C0003B695B7D002B04D13B69012283F85420EB
:1013D00066E03B69022283F8542061E00023FB753C
:1013E0003B69DB6C002B12D13B691B6D002B0ED1CE
:1013F0003B6993F8383083F00103DBB2002B06D051
:10140000386900F065F83B69002283F854203B6896
:101410001B78FB73FB7B0A2B09D00C2B21D138697D
:1014200000F056F83B69002283F854201FE0386929
:1014300000F086FBB860BB68002B01D0BB683FE0C2
:101440000123FB753B6993F83930002B03D00D2144
:10145000386900F077F9FB7B1946386900F072F9BA
:1014600005E0FB7B1946386900F06CF900BF3B6969
:10147000DA6C3B691B6B9A4204D23B6993F8543097
:10148000002B0AD1386900F05BFBB860BB68002B09
:1014900001D0BB6814E00123FB753B6801333B605E
:1014A0003B681B78002B99D1FB7D83F00103DBB2F5
:1014B000002B04D0386900F043FB034600E0002312
:1014C00018461837BD4680BD980B010006001280F3
:1014D00080B582B000AF78607B685B6C002B15D064
:1014E0007B68186C7B685B6B7A68126B02FB03F39A
:1014F0001A4600210EF0A9F97B680022DA647B68A5
:1015000000221A657B68002283F8542000BF083748
:10151000BD4680BD80B584B000AF78600023FB601D
:1015200014E07B685A6CFB689B00134418687B6866
:101530005A6CFB6801339B00134419687B681B6B72
:101540001A460EF077F9FB680133FB607B685B6B32
:10155000013BFA689A42E4D37B685A6C7B685B6B08
:1015600003F18043013B9B00134418687B681B6BAD
:101570001A4600210EF069F97B680022DA647B6864
:101580005B6B5A1E7B681A657B68002283F85420C7
:1015900000BF1037BD4680BD80B586B000AF786013
:1015A00039600023FB733B681B2B0ED10422002102
:1015B00062480EF04AF93B68DAB2604B1A707B68F9
:1015C000032283F854200123B3E05C4B1B781B2BD0
:1015D00001D00023ADE0594B7B617B6901337B6116
:1015E0007B691B78002BF8D13B68DAB27B691A70F3
:1015F00052480EF009FAB86000233B6178E03B697D
:101600009B004F4A1344BA6819464C480EF004FA3E
:101610000346002B69D10123FB737B68032283F807
:1016200054203B699B00464A134418460EF0ECF9DF
:101630000246BB6893425FD13B69052B4AD801A2A1
:1016400052F823F05D1600005D1600006B160000D6
:101650007F16000099160000B31600007B68002278
:101660001A657B680022DA6434E07B681B6D002B0E
:1016700029D07B681B6D5A1E7B681A6523E07B6846
:101680001A6D7B685B6B013B9A421ED27B681B6DB7
:101690005A1C7B681A6518E07B68DA6C7B681B6BE8
:1016A000013B9A4213D27B68DB6C5A1C7B68DA647C
:1016B0000DE07B68DB6C002B0BD07B68DB6C5A1E6B
:1016C0007B68DA6405E000BF04E000BF02E000BF11
:1016D00000E000BF0422002118480EF0B6F87B6835
:1016E000032283F85420012323E03B6901333B614B
:1016F0003B69052B83DD00E000BFFB7B83F001032A
:10170000DBB2002B06D0042200210C480EF09DF81D
:1017100000230EE0BB68032B0AD1042200210748F6
:101720000EF093F87B68032283F85420012300E035
:10173000FB7B18461837BD4680BD00BFDC03002088
:10174000A00B010080B582B000AF786039603B68C3
:101750000A2B08D00D2B02D0082B24D038E07B6850
:101760000022DA6486E07B681B6D5A1C7B681A6570
:101770007B680022DA647B681A6D7B685B6B9A4237
:1017800075D37B6893F83830002B08D07868FFF762
:10179000C1FE7B685B6B5A1E7B681A6567E07868E0
:1017A000FFF796FE63E07B681B7D002B10D07B6803
:1017B0001B7D012B0CD07B68FF2283F848207B68BF
:1017C000002283F849207B68002283F84A2051E0F8
:1017D00039687868FFF7E0FE0346002B49D10EF028
:1017E00009F802463B68013313441B7803F0970362
:1017F000002B01D120233B607B68DA6C7B681B6B7C
:101800009A4207D37B680022DA647B681B6D5A1CFE
:101810007B681A657B681A6D7B685B6B9A4210D394
:101820007B6893F83830002B08D07868FFF772FE99
:101830007B685B6B5A1E7B681A6502E07868FFF76D
:1018400047FE3B68DAB27B68596C7B681B6D9B0076
:101850000B4419687B68DB6C0B44203AD2B21A70D7
:101860007B68DB6C5A1C7B68DA6400BF02E000BF57
:1018700000E000BF0837BD4680BD0000B0B592B0A3
:1018800002AF786039607B68DB6B7B630023BB63EE
:1018900034E10023FB6373E07B685A6C3B689B0078
:1018A00013441A68FB6B13441B78FB73FA7BBB6B06
:1018B000642101FB03F313449F4AD35C87F8333060
:1018C0007B681B7D002B08D0002B54DB022B52DCE5
:1018D00097F83330DB4387F83330FA6B13465B00FD
:1018E00013445B00BB60BB68BB623EE097F83330DB
:1018F00003F00103002B17D0BB6ADB101A467B6B89
:1019000013441B785AB2BB6A03F00703012101FAA2
:1019100003F35BB213435AB2BB6ADB1019467B6B0D
:101920000B44D2B21A7018E0BB6ADB101A467B6B0C
:1019300013441B785AB2BB6A03F00703012101FA72
:1019400003F35BB2DB435BB213405AB2BB6ADB10FA
:1019500019467B6B0B44D2B21A7097F833305B0890
:1019600087F83330BB6A0133BB62BB680633BA6A9F
:101970009A42BBDB01E0714BDAE0FB6B0133FB63A6
:101980007B681B6BFA6B9A4286D37B681B7D013B9D
:10199000012B38D8FA6B13465B0013445B007B6263
:1019A0007B6A03F00703BB61BB69002B1CD07B6A19
:1019B000DB101A467B6B13441B785AB20121BB69BA
:1019C00001FA03F3DBB25B42DBB25BB213435AB200
:1019D0007B6ADB1019467B6B0B44D2B21A707A6AB1
:1019E000BB69D31A08337B627B6ADB101A467B6BB8
:1019F00098187B689A687B6AD31ADB081A46FF211D
:101A00000DF023FF00E000BF7B681B7D022B6CD133
:101A10007B6893F84830DB09DBB25AB27B6893F8F5
:101A200049309B115BB203F002035BB213435AB21D
:101A30007B6893F84A305B115BB203F004035BB23E
:101A400013435BB2FB757B6B3B617B689B68DB0878
:101A5000013B3B6246E00023FB620023FB611BE08D
:101A60003B6A3A6913441B781A46FB6942FA03F34E
:101A700003F00103002B01D1FA7D00E00722F96990
:101A80000B465B000B4402FA03F31A46FB6A13434E
:101A9000FB62FB690133FB61FB69072BE0DD3A6AFE
:101AA00013465B0013441A463B691344FA6AD2B2E8
:101AB0001A70FB6A190A3A6A13465B001344013331
:101AC0003A691344CAB21A70FB6A190C3A6A13468F
:101AD0005B00134402333A691344CAB21A703B6A7A
:101AE000013B3B623B6A002BB5DA7B68DB68DB08B5
:101AF0007A6B13447B63BB6B0133BB63BB6B072BFC
:101B00007FF6C7AE7B685C6A7B68181D7B68D96B03
:101B10007B681A6B13465B0013445B001D463B68F1
:101B2000DB000822019200932B460022A0470346C7
:101B300018464037BD46B0BD780801000400128049
:101B400090B587B002AF78607B6893F85430012B72
:101B500071D0022B7DD0002B02D000BF002379E092
:101B60007B685B7D002B63D10023FB6006E0F96896
:101B70007868FFF783FEFB680133FB607B685B6B73
:101B8000FA689A42F3D37B685B6BDA007B681B6967
:101B90009A424FD27B681B7D012B0DD0022B15D0B2
:101BA000002B20D17B68D86B7B689B68DB081A46CA
:101BB00000210DF04AFE18E07B68D86B7B689B68BB
:101BC000DB081A46FF210DF040FE0EE07B68D86B63
:101BD0007B689A6813465B001344DB081A46FF21B2
:101BE0000DF033FE01E01D4B34E07B685B6BDB00E6
:101BF000FB6017E07B685C6A7B68181D7B68D96BAB
:101C00007B689A6801230193FB68009313460022C6
:101C1000A047B860BB68002B01D0BB681AE0FB6826
:101C20000133FB607B681B69FA689A42E2D301E0EA
:101C30000A4B0FE000BF7B685B7D002B07D17B6800
:101C40001B6D19467868FFF719FE034602E0034B47
:101C500000E0024B18461437BD4690BD04001280C8
:101C600080B483B000AF0346FB7197F90730002BB7
:101C70000CDBFB7903F01F02074997F907305B097A
:101C8000012000FA02F2603341F8232000BF0C3734
:101C9000BD465DF8047B704700E100E080B400AF12
:101CA000034B9B681846BD465DF8047B704700BF38
:101CB0000020044080B58AB000AF002387F82730A9
:101CC000002387F82630002387F82530002387F883
:101CD0002430002387F82330534A3B4607CA03C306
:101CE0001A700023FB610023BB61504BD3F8B03066
:101CF00003F00403002B06D101214D4803F066FBDD
:101D0000012387F827304B4803F042FF0346FB7559
:101D1000FB7D032B02D0012387F82530434BD3F8FA
:101D2000903003F04003002B02D1012387F82430C8
:101D30000321404804F010F83F4803F02BFB3861C2
:101D40003A4BD3F8F03003F00103002B06D1012108
:101D5000394803F03BFB012387F8263004F0A2FC4E
:101D6000F860364B1B6803F00103002B15D0334B92
:101D70001B68FB61314B5B6ABB61304B00221A6010
:101D80002E4B00225A622D4B40F2FF721A621E2027
:101D9000FFF766FF012387F823300023BB70002381
:101DA000FB7008233B713B46184605F07DFF00F0B1
:101DB00065F8F86804F086FC97F82330002B0AD009
:101DC00039691D4803F0F3FA1C4AFB6913601B4A8A
:101DD000BB69536202E0002005F054FF97F82630FB
:101DE000002B03D00021144803F0F0FA97F82530B7
:101DF000002B04D0FB7D19460E4803F0ADFF97F889
:101E00002430002B04D000220021012004F0DAF954
:101E100097F82730002B03D00021054803F0D6FAAD
:101E200000BF2837BD4680BDB80B010000400E4002
:101E300000250A0005002400A00914000020044029
:101E400080B483B000AF78607B680B49002B0CD066
:101E5000013B88221202003253430A68D80AD20A90
:101E60005043800901D00138FDD800BF0C37BD4672
:101E70005DF8047B704700BF2400002080B584B06B
:101E800000AF0823BB60334B4FF480521A601AE056
:101E900000F062F8786000BF00F05EF802467B68F0
:101EA0009342F9D000F058F878602A4B1B68184626
:101EB00000F059F800F050F802467B68D31A7B60B6
:101EC0007B68002B07D1234B1B685B00214A136002
:101ED000002BDDD100E000BF1E4B1B685B081D4AD4
:101EE00013601C4B1B68FB6024E01A4B1A68FB68EC
:101EF0001343184A136000F02FF8786000BF00F019
:101F00002BF802467B689342F9D000F025F8786000
:101F1000104B1B68184600F026F800F01DF802462A
:101F20007B68934206D0FB68DA430A4B1B68134078
:101F3000084A1360BB685A1EBA60002B05D0FB68C4
:101F40005B08FB60FB68002BCFD100BF1037BD469C
:101F500080BD00BF2400002080B500AFFFF79EFECB
:101F60000346184680BD80B483B000AF78607B68BC
:101F7000013BFDD800BF0C37BD465DF8047B7047C0
:101F800080B500AF044801F053FA044801F050FA5C
:101F900000F07CF900BF80BDC40B0100F40B010010
:101FA00098B500AF094802F091FD0446074802F0D9
:101FB0008DFD0146064B074A204600F0E5FE4FF036
:101FC000005000F01FFF00BF98BD00BF009A002026
:101FD000811F0000AC0C0100F0B585B002AF0023FA
:101FE0007B6035E01F497A6813469B0013449B00D1
:101FF0000B4418681B497A6813469B0013449B00E6
:102000000B4404331C6817497A6813469B00134439
:102010009B000B4408331D6812497A6813469B00E5
:1020200013449B000B440C331B681E460D497A6811
:1020300013469B0013449B000B4410331B68009312
:1020400033462A46214600F0B7F87B6801337B60AF
:10205000054B1B687A689A42C4D300BF0C37BD4653
:10206000F0BD00BFE00300206006002090B585B001
:1020700000AF02F020FDF860F868FEF7FFF8C7E94E
:102080000001D7E90034184621461437BD4690BDFB
:1020900080B582B000AF786006F0ACFC0346002B40
:1020A00002D1786801F0ACFA00BF0837BD4680BDA8
:1020B00080B582B000AF786006F09CFC0346002B30
:1020C00002D1786801F05CFA00BF0837BD4680BDD8
:1020D00080B582B000AF786006F08CFC0346002B20
:1020E00003D10421786801F0CBFA00BF0837BD4660
:1020F00080BD000080B586B002AFF860B9607A603C
:102100003B6006F077FC0346002B4BD1274B1B6846
:102110001F2B03D9264801F039FC43E0234B1A68F2
:10212000244913469B0013449B000B44FA681A6031
:102130001E4B1A681F4913469B0013449B000B4417
:102140000433BA681A60194B1A681A4913469B007F
:1021500013449B000B4408337A681A60134B1A68C7
:10216000144913469B0013449B000B440C333A68FC
:102170001A600E4B1A680F4913469B0013449B00CC
:102180000B441033BA691A60084B1B680133074AC5
:1021900013603A68BB69009313467A68B968F868B7
:1021A00000F00AF81037BD4680BD00BF6006002071
:1021B000080C0100E003002080B58AB000AFF86091
:1021C000B9607A603B6007F11403142200211846BD
:1021D0000DF03BFBFB687B61BB68BB617B68FB610F
:1021E0003B683B623B6B7B6207F11403184601F0CE
:1021F00029F800BF2837BD4680BD000080B584B0F7
:1022000000AFF860B9607A607968B86801F094FA54
:10221000B86801F0D5FA03461946F86800F01CFECC
:10222000174B1B68FF2B03D9164801F0AFFB24E0C6
:10223000134B1A68144913465B0013449B000B446C
:10224000BA681A600E4B1A680F4913465B001344B4
:102250009B000B4404337A681A60094B1A680A49D8
:1022600013465B0013449B000B44083300221A60A2
:10227000034B1B680133024A13601037BD4680BD13
:1022800064120020580C01006406002080B582B062
:1022900000AF00237B602BE01A497A6813465B008D
:1022A00013449B000B4408331B68002B1DD11549B8
:1022B0007A6813465B0013449B000B44186811496D
:1022C0007A6813465B0013449B000B4404331B687D
:1022D000194601F031FA0B497A6813465B00134442
:1022E0009B000B44083301221A607B6801337B603A
:1022F000054B1B687A689A42CED300BF0837BD46AB
:1023000080BD00BF640600206412002080B582B04A
:1023100000AF224B7B607B6802221A617B6802223D
:102320005A617B681E4A9A617B681E4ADA617B6843
:102330004FF480621A627B6800229A627B680022F6
:102340005A627B680022DA627B68154A9A647B686D
:10235000154ADA647B6810221A657B6800229A6548
:102360007B6800225A657B680022DA657B68073348
:102370000E4918460DF040FBBFF35F8F7B680C4998
:1023800018460DF039FBBFF35F8F7B6820229A71EE
:10239000BFF35F8F00BF0837BD4680BD189A00208D
:1023A000B40C01006812002068160020C00C010067
:1023B000C40C010080B58AB000AFF860B9607A60E3
:1023C00000233B62FB68DB68FB61FB681B69BB6148
:1023D000BA69FB699A4205D9BA69FB69D31A013B0C
:1023E0007B6207E0FB689A68B969FB69CB1A134402
:1023F000013B7B62FB689A68FB69D31A7A6A934255
:1024000028BF13467B627A6A7B68934228BF1346D3
:102410007B62FB685A68FB6913447B617A6AB9681E
:1024200078690DF007FA3A6A7B6A13443B62BA682E
:102430007B6A1344BB607A687B6AD31A7B60FA6953
:102440007B6A1344FB61FB689B68FA699A4201D17D
:102450000023FB61BFF35F8FFB68FA69DA607B687A
:10246000002BB2D13B6A18462837BD4680BD80B5E7
:1024700088B000AFF860B9607A60FB68DB68FB6128
:10248000FB689A68FB69D31ABB61BA697B689A4298
:1024900011D9FB685A68FB6913443B617A68B968D3
:1024A00038690DF0C7F9BFF35F8FFA697B681A448A
:1024B000FB68DA601FE0BB697B61FB685A68FB69F7
:1024C00013443B617A69B96838690DF0B3F97A68E9
:1024D000BB69D31A7B61FB685B683B61BA68BB6907
:1024E00013447A69194638690DF0A4F9BFF35F8F78
:1024F000FB687A69DA6000BF2037BD4680BD80B4D2
:1025000087B000AF78607B681B693B617B68DB68E4
:10251000FB603A69FB689A4208D87B689A68FB6856
:10252000D21A3B691344013B7B6104E03A69FB68C2
:10253000D31A013B7B617B6918461C37BD465DF8A9
:10254000047B704780B58CB000AFF860B9607A60EA
:102550003E4B3B623B6A1B78DBB2002B01D1FFF79D
:10256000D5FEFA6813465B001344DB004833374A54
:102570001344FB61BB687B62FB691B69BB62FB693F
:10258000DB68BB610023FB62BA6ABB699A422BD944
:10259000FB699A68BB6AD31A7B617A697B6893424C
:1025A00028BF13467B61FB695A68BB6A13443B61D1
:1025B0007A693969786A0DF03DF9FA6A7B691344E2
:1025C000FB627A6A7B6913447B627A687B69D31AFF
:1025D0007B60BA6A7B691344BB62FB699B68BA6A19
:1025E0009A4201D10023BB62BA69BB6AD31A7B61EC
:1025F0007A697B68934228BF13467B617B69002B15
:1026000019D0FB695A68BB6A13443B617A6939691E
:10261000786A0DF00FF9FA6A7B691344FB627A6AF3
:102620007B6913447B627A687B69D31A7B60BA6AE0
:102630007B691344BB62FB6A002B02D0FB69BA6A58
:102640001A61FB6A18463037BD4680BD189A0020D3
:1026500080B588B000AFF860B9607A60BB68BB61D4
:10266000FB685A1C13465B001344DB001E4A1344EC
:102670007B617B695B69012B17D0012B02D3022B95
:1026800023D029E07869FFF73AFF38613A697B681F
:102690009A4202D20023FB6121E07B68FB617A68E9
:1026A000B9697869FFF7E3FE19E07869FFF727FF5A
:1026B00038617A683B69934228BF1346FB61FA6927
:1026C000B9697869FFF7D3FE09E07A68B969786972
:1026D000FFF770FEF86102E00023FB6100BFFB69B9
:1026E00018462037BD4680BD189A002080B588B0B6
:1026F00000AFF860B9607A600C4BFB61FB691B7836
:10270000DBB2002B01D1FFF701FE03F0ADFFB86192
:102710007A68B968F868FFF79BFF7861B86903F0D9
:10272000B3FF7B6918462037BD4680BD189A00204C
:1027300080B588B000AFF860B9607A603B60314B1B
:10274000BB61BB691B78DBB2002B01D1FFF7DEFD5B
:102750002C4B7B617B691B691A46FB68934248D20C
:1027600003F082FF3861FB68002B32D07969FB6887
:102770005A1C13465B001344DB000B44BA681A6012
:102780007969FB685A1C13465B001344DB000B4459
:1027900004337A681A607969FA6813465B00134457
:1027A000DB000B4420333A681A607969FA681346F3
:1027B0005B001344DB000B44283300221A60796964
:1027C000FA6813465B001344DB000B4424330022F9
:1027D0001A607969FA6813465B001344DB000B4406
:1027E0002C33BA6A1A60386903F04EFF0023FB618C
:1027F00002E04FF0FF33FB61FB6918462037BD460E
:1028000080BD00BF189A002080B588B000AFF86086
:10281000B9607A603B60314BBB61BB691B78DBB24E
:10282000002B01D1FFF772FD2C4B7B617B695B694B
:102830001A46FB68934249D203F016FF3861FB68E1
:10284000002B31D07969FA6813465B001344DB0032
:102850000B444833BA681A607969FA6813465B001A
:102860001344DB000B444C337A681A607969FA68C8
:1028700013465B001344DB000B4450333A681A6084
:102880007969FA6813465B001344DB000B44583344
:1028900000221A607969FA6813465B001344DB0072
:1028A0000B44543300221A607969FA6813465B00BE
:1028B0001344DB000B445C33BA6A1A60BFF35F8FCA
:1028C000386903F0E1FE0023FB6102E04FF0FF33C3
:1028D000FB61FB6918462037BD4680BD189A002071
:1028E000F0B400EB4003DFF8880000EBC30000F118
:1028F00018063069F7687568874232D3B368DC1B05
:10290000631E934214D37D19D01900BF11F8013B07
:1029100005F8013B013A05D011F8013B05F8013BF0
:10292000013AF3D1BFF35F8FF0600120F0BC704734
:10293000C018904219D37819121B11F8013B00F806
:10294000013B013CF9D1141C05D011F8013B05F8FD
:10295000013B013AF9D1BFF35F8FF4600120F0BC75
:102960007047C01B01389042CDD20020F0BC7047A8
:10297000189A002080B487B000AFF860B9607A6020
:1029800000233B6102E03B6901333B61BA683B696C
:1029900013441B78002BF6D13A697B689A4201D91F
:1029A0007B683B613B69FE2B06D8FB685A1CFA60CA
:1029B0003A69D2B21A7011E0FB685A1CFA60FF2221
:1029C0001A70FB685A1CFA603A69D2B21A703B69F5
:1029D000190AFB685A1CFA60CAB21A7000237B619C
:1029E0000AE0BA68531CBB60FB68591CF960127896
:1029F0001A707B6901337B617A693B699A42F0D333
:102A0000FB6818461C37BD465DF8047B704780B4F0
:102A100083B000AF78607B68043318460C37BD463E
:102A20005DF8047B704780B582B000AFFB1C0122CB
:102A300019460120FFF786FD03467B607B68002B6B
:102A400049DDFB78052B22D0052B0BDC022B15D0A2
:102A5000022B02DC012B0ED032E0032B11D0042B11
:102A600012D02DE0072B18D0072B13DB7F2B34D08F
:102A7000802B15D024E000F07DFA33E000F02AFB33
:102A800030E000F0F5FC2DE000F0BEFC2AE000F0A4
:102A900043FB27E000F040FF24E000F01FFF21E0AF
:102AA000FB1C012219460120FFF74CFD03467B6009
:102AB0007B68002B13DDFB78184600F093FE0EE0D8
:102AC000FB785BB2002B0CDAFB1C012219460120BB
:102AD000FFF738FD05E000BF04E000BF02E000BFE3
:102AE00000E000BF00BF0837BD4680BD80B58CB098
:102AF00000AF01233B713B1D0133FB61FB69FB62AE
:102B0000334B5B69BB620BE0BB6ADAB2FB6A591CF0
:102B1000F96262F07F02D2B21A70BB6ADB09BB6253
:102B2000BB6A7F2BF0D8FB6A5A1CFA62BA6AD2B22F
:102B30001A70FB6AFB61274B1B68BB61244BDB6887
:102B4000BA69D31A7B617B691B017B617B691B11AD
:102B50007B61FB697B627B693B620BE03B6ADAB2BB
:102B60007B6A591C796262F07F02D2B21A703B6AAA
:102B7000DB093B623B6A7F2BF0D87B6A5A1C7A6286
:102B80003A6AD2B21A707B6AFB61FA693B1DD31AAA
:102B90001A463B1D19460120FFF7A2FE03463B6182
:102BA0003B69002B09D00A4ABB69D360084B1B78EC
:102BB000013BDAB2064B1A7004E0054B5B69013346
:102BC000034A53613B6918463037BD4680BD00BF9C
:102BD00080560020041000E080B58AB000AFF86095
:102BE000B9607A60654B1B78012B10D0634B1B7862
:102BF000002B00F0A780614B1B78022B09D1FFF757
:102C000075FF5E4B1B78012B40F09E8001E000BFFA
:102C100000E000BF7B681F2B09D8584BDA697B683E
:102C200022FA03F303F00103002B40F08F807B684E
:102C3000172B07D8FB68013BFB607B68DAB2FB68A7
:102C40001A703DE0BA68FB68D31AFB61FB697F2B01
:102C500012D9FB69DA09FB68013BFB60D2B2FB6861
:102C60001A70FB69DBB2FA68013AFA6063F07F031D
:102C7000DAB2FB681A7006E0FB68013BFB60FB6997
:102C8000DAB2FB681A707B687F2B12D97B68DA098D
:102C9000FB68013BFB60D2B2FB681A707B68DBB259
:102CA000FA68013AFA6063F07F03DAB2FB681A70DF
:102CB00006E0FB68013BFB607B68DAB2FB681A70D8
:102CC0002F4B1B68BB612D4BDB68BA69D31A7B6144
:102CD0007B691B017B617B691B097B61BB687B6234
:102CE0007B693B620BE03B6ADAB27B6A591C796212
:102CF00062F07F02D2B21A703B6ADB093B623B6A28
:102D00007F2BF0D87B6A5A1C7A623A6AD2B21A7068
:102D10007B6ABB60BA68FB68D31A1A46F96801205F
:102D2000FFF7DEFD03463B613B69002B03D0134AEE
:102D3000BB69D3600BE0114B1B780133DAB20F4B48
:102D40001A7004E000BF02E000BF00E000BF0D4BBE
:102D5000DA6E0C4B1B6F9A420BD0084B9B78002B02
:102D600007D1064B01229A70FFF75DFE034B00224C
:102D70009A7000BF2837BD4680BD00BF8056002036
:102D8000041000E0189A002080B586B002AFF86009
:102D9000B9607A603B60002300934FF48043144A8B
:102DA00014490120FFF7C4FC002300930823124AB2
:102DB00010490120FFF728FD104B4FF080521A6197
:102DC0000F4B1B680D4AD3600C4A7B6813620B4A99
:102DD000FB685360094ABB689360084A3B685362CA
:102DE000064B00221A7000BF1037BD4680BD00BFE1
:102DF00078160020D80C010078560020805600205C
:102E0000041000E080B483B000AF7860044A7B68AF
:102E1000136100BF0C37BD465DF8047B704700BFEF
:102E20008056002080B584B000AF786003F01CFCB1
:102E3000F8600848FFF7EBFDB8607A68B968B868D1
:102E4000FFF7CAFEF86803F01FFC00BF1037BD464D
:102E500080BD00BFB056002080B588B000AF78605C
:102E6000396003F001FC78611648FFF7D0FD386146
:102E70003B69FB60FB68FB613B68BB610BE0BB69C6
:102E8000DAB2FB69591CF96162F07F02D2B21A70A2
:102E9000BB69DB09BB61BB697F2BF0D8FB695A1C9E
:102EA000FA61BA69D2B21A70FB69FB607A68F96894
:102EB0003869FFF791FE786903F0E6FB00BF203721
:102EC000BD4680BDB056002080B58CB000AFF86024
:102ED000B9607A6003F0C8FBF8612548FFF797FDF9
:102EE000B861BB697B617B69FB62BB68BB620BE05D
:102EF000BB6ADAB2FB6A591CF96262F07F02D2B295
:102F00001A70BB6ADB09BB62BB6A7F2BF0D8FB6A15
:102F10005A1CFA62BA6AD2B21A70FB6A7B617B6988
:102F20007B627B683B620BE03B6ADAB27B6A591CCE
:102F3000796262F07F02D2B21A703B6ADB093B62AF
:102F40003B6A7F2BF0D87B6A5A1C7A623A6AD2B20B
:102F50001A707B6A7B61FA687969B869FFF73CFE91
:102F6000F86903F091FB00BF3037BD4680BD00BF5C
:102F7000B056002080B58CB000AF534B01221A70C0
:102F800003F072FBF8600A2250490120FFF7A8FC09
:102F9000F86803F079FB0A20FFF744FF03F064FBB5
:102FA000B8604B48FFF733FD78607B683B603B6857
:102FB000FB62454B5B68BB620BE0BB6ADAB2FB6A43
:102FC000591CF96262F07F02D2B21A70BB6ADB0947
:102FD000BB62BB6A7F2BF0D8FB6A5A1CFA62BA6AE2
:102FE000D2B21A70FB6A3B603B687B62364B9B68CF
:102FF0003B620BE03B6ADAB27B6A591C796262F091
:103000007F02D2B21A703B6ADB093B623B6A7F2BBC
:10301000F0D87B6A5A1C7A623A6AD2B21A707B6A1A
:103020003B603B68FB61284B1B69BB610BE0BB69E4
:10303000DAB2FB69591CF96162F07F02D2B21A70F0
:10304000BB69DB09BB61BB697F2BF0D8FB695A1CEC
:10305000FA61BA69D2B21A70FB693B603B687B6166
:1030600002233B610BE03B69DAB27B69591C796151
:1030700062F07F02D2B21A703B69DB093B613B69A7
:103080007F2BF0D87B695A1C7A613A69D2B21A70E8
:103090007B693B60182239687868FFF79DFDB86846
:1030A00003F0F2FA084B5B6A002B02D0064B5B6A16
:1030B000984700F0DDF900F0A7F900F02DFC00BF03
:1030C0003037BD4680BD00BF80560020CC0C0100CB
:1030D000B056002080B582B000AF03F0C5FA78602A
:1030E0000B48FFF794FC38600A4B1B78002B07D085
:1030F0000B2239683868FFF76FFD064B00221A7003
:10310000786803F0C1FA00BF0837BD4680BD00BF34
:10311000B05600208056002080B58CB000AF03F080
:10312000A3FAF8604548FFF772FCB860BB687B60A3
:103130007B68FB62424B5B68BB620BE0BB6ADAB246
:10314000FB6A591CF96262F07F02D2B21A70BB6A44
:10315000DB09BB62BB6A7F2BF0D8FB6A5A1CFA62A0
:10316000BA6AD2B21A70FB6A7B607B687B62344BAE
:103170009B683B620BE03B6ADAB27B6A591C79625E
:1031800062F07F02D2B21A703B6ADB093B623B6A93
:103190007F2BF0D87B6A5A1C7A623A6AD2B21A70D4
:1031A0007B6A7B607B68FB61254B1B69BB610BE025
:1031B000BB69DAB2FB69591CF96162F07F02D2B2D5
:1031C0001A70BB69DB09BB61BB697F2BF0D8FB6957
:1031D0005A1CFA61BA69D2B21A70FB697B607B68CB
:1031E0007B6102233B610BE03B69DAB27B69591CCE
:1031F000796162F07F02D2B21A703B69DB093B61F0
:103200003B697F2BF0D87B695A1C7A613A69D2B24C
:103210001A707B697B6018227968B868FFF7DCFC5C
:10322000F86803F031FA064B5B6A002B02D0044BBE
:103230005B6A984700BF3037BD4680BDB05600205E
:103240008056002080B592B000AF786003F00CFA91
:1032500078616B48FFF7DBFB38613B69FB60FB681B
:103260007B647B681A68674B1B69D31A9B083B64B5
:103270000BE03B6CDAB27B6C591C796462F07F0224
:10328000D2B21A703B6CDB093B643B6C7F2BF0D8ED
:103290007B6C5A1C7A643A6CD2B21A707B6CFB60FD
:1032A000FB68FB637B689B68BB630BE0BB6BDAB2BC
:1032B000FB6B591CF96362F07F02D2B21A70BB6BD0
:1032C000DB09BB63BB6B7F2BF0D8FB6B5A1CFA632B
:1032D000BA6BD2B21A70FB6BFB607B685B68202212
:1032E0001946F868FFF746FBF8600922F968386963
:1032F000FFF772FC3B69FB60FB687B637B681A68C5
:10330000404B1B69D31A9B083B630BE03B6BDAB263
:103310007B6B591C796362F07F02D2B21A703B6BEF
:10332000DB093B633B6B7F2BF0D87B6B5A1C7A63CA
:103330003A6BD2B21A707B6BFB60FB68FB627B68F6
:10334000DB68BB620BE0BB6ADAB2FB6A591CF9624C
:1033500062F07F02D2B21A70BB6ADB09BB62BB6A41
:103360007F2BF0D8FB6A5A1CFA62BA6AD2B21A7082
:10337000FB6AFB60FB687B627B681B693B620BE05E
:103380003B6ADAB27B6A591C796262F07F02D2B280
:103390001A703B6ADB093B623B6A7F2BF0D87B6A81
:1033A0005A1C7A623A6AD2B21A707B6AFB60FB6876
:1033B000FB610023BB610BE0BB69DAB2FB69591CFE
:1033C000F96162F07F02D2B21A70BB69DB09BB619E
:1033D000BB697F2BF0D8FB695A1CFA61BA69D2B27B
:1033E0001A70FB69FB601522F9683869FFF7F4FB76
:1033F000786903F049F900BF4837BD4680BD00BF7A
:10340000B05600208056002080B500AF074B1B6AE5
:10341000002B08D0054B1B6A5B68002B03D0034BC5
:103420001B6A5B68984700BF80BD00BF80560020C4
:1034300080B586B000AF786003F016F978610B486C
:10344000FFF7E5FA3861802279683869FFF792FA68
:10345000F8600E22F9683869FFF7BEFB786903F05F
:1034600013F900BF1837BD4680BD00BFB05600201D
:1034700090B583B000AF144B1B6A002B19D0124BD0
:103480001B6A1B68002B14D00F4B1B6A1B689847E4
:10349000C7E900013868D7E900124FF000034FF088
:1034A0000004130000241A4601460D20FFF70CFD0E
:1034B00005E0064B1B6819460C20FFF7CDFC00BF4A
:1034C0000C37BD4690BD00BF80560020041000E0C0
:1034D00080B582B000AF03F0C7F878600748FFF707
:1034E00096FA3860112239683868FFF775FB7868FA
:1034F00003F0CAF800BF0837BD4680BDB0560020B3
:1035000080B588B000AF786003F0AEF878611A48F3
:10351000FFF77DFA38613B69FB60184B1B697A68DD
:10352000D31A9B087B60FB68FB617B68BB610BE087
:10353000BB69DAB2FB69591CF96162F07F02D2B251
:103540001A70BB69DB09BB61BB697F2BF0D8FB69D3
:103550005A1CFA61BA69D2B21A70FB69FB60082280
:10356000F9683869FFF738FB786903F08DF800BF18
:103570002037BD4680BD00BFB056002080560020D9
:1035800080B588B000AF786003F06EF878611A48B3
:10359000FFF73DFA38613B69FB60184B1B697A689D
:1035A000D31A9B087B60FB68FB617B68BB610BE007
:1035B000BB69DAB2FB69591CF96162F07F02D2B2D1
:1035C0001A70BB69DB09BB61BB697F2BF0D8FB6953
:1035D0005A1CFA61BA69D2B21A70FB69FB60042204
:1035E000F9683869FFF7F8FA786903F04DF800BF19
:1035F0002037BD4680BD00BFB05600208056002059
:1036000080B588B000AF786003F02EF878611A4872
:10361000FFF7FDF938613B69FB60184B1B697A685D
:10362000D31A9B087B60FB68FB617B68BB610BE086
:10363000BB69DAB2FB69591CF96162F07F02D2B250
:103640001A70BB69DB09BB61BB697F2BF0D8FB69D2
:103650005A1CFA61BA69D2B21A70FB69FB60062281
:10366000F9683869FFF7B8FA786903F00DF800BF18
:103670002037BD4680BD00BFB056002080560020D8
:1036800080B58AB000AF7860396002F0EDFF7861F4
:103690002748FFF7BCF938613B69FB60254B1B6984
:1036A0007A68D31A9B087B60FB687B627B683B620D
:1036B0000BE03B6ADAB27B6A591C796262F07F02E6
:1036C000D2B21A703B6ADB093B623B6A7F2BF0D8AF
:1036D0007B6A5A1C7A623A6AD2B21A707B6AFB60C1
:1036E000FB68FB613B68BB610BE0BB69DAB2FB695D
:1036F000591CF96162F07F02D2B21A70BB69DB0912
:10370000BB61BB697F2BF0D8FB695A1CFA61BA69AF
:10371000D2B21A70FB69FB600722F9683869FFF7BB
:103720005BFA786902F0B0FF00BF2837BD4680BD64
:10373000B05600208056002080B588B000AF786079
:10374000396002F091FF78611B48FFF760F938613A
:103750003B69FB60FB68FB61184B1B697A68D31AF5
:103760009B08BB610BE0BB69DAB2FB69591CF961CC
:1037700062F07F02D2B21A70BB69DB09BB61BB6920
:103780007F2BF0D8FB695A1CFA61BA69D2B21A7061
:10379000FB69FB6080223968F868FFF7EBF8F86096
:1037A0001922F9683869FFF717FA786902F06CFF97
:1037B00000BF2037BD4680BDB05600208056002097
:1037C00080B483B000AF7860054B1B697A68D31A68
:1037D0009B0818460C37BD465DF8047B704700BF58
:1037E0008056002080B58CB000AF0346FB71394B8A
:1037F0001B68002B69D0374B1B68FB620023BB6240
:1038000008E0FB6A1B69FB62FB6A002B07D0BB6AFE
:103810000133BB62FB79BA6A9A42F2D300E000BF7F
:10382000FB6A002B51D002F01FFF78612A48FFF796
:10383000EEF838613B69FB60FB687B62FB793B62B9
:103840000BE03B6ADAB27B6A591C796262F07F0254
:10385000D2B21A703B6ADB093B623B6A7F2BF0D81D
:103860007B6A5A1C7A623A6AD2B21A707B6AFB602F
:10387000FB68FB61FB6A9B68BB610BE0BB69DAB26A
:10388000FB69591CF96162F07F02D2B21A70BB6900
:10389000DB09BB61BB697F2BF0D8FB695A1CFA615D
:1038A000BA69D2B21A70FB69FB60FB6A1B6880229E
:1038B0001946F868FFF75EF8F8601622F96838696B
:1038C000FFF78AF9786902F0DFFE00BF3037BD46A6
:1038D00080BD00BFA8560020B056002080B582B041
:1038E00000AF0C4B1B68002B0FD00A4B1B687B6092
:1038F0007B68DB68002B02D07B68DB6898477B68BD
:103900001B697B607B68002BF2D100BF0837BD4686
:1039100080BD00BFA856002080B586B000AF02F081
:10392000A3FEF8601748FFF772F8B860BB687B60C9
:103930007B687B61144B1B783B610BE03B69DAB21F
:103940007B69591C796162F07F02D2B21A703B69BF
:10395000DB093B613B697F2BF0D87B695A1C7A619C
:103960003A69D2B21A707B697B601B227968B868A9
:10397000FFF732F9F86802F087FE00BF1837BD463E
:1039800080BD00BFB0560020AC56002080B58AB084
:1039900000AF786002F068FE78612748FFF737F8DB
:1039A0003861802279683869FEF7E4FFF860FB68C7
:1039B0007B6201233B620BE03B6ADAB27B6A591CF3
:1039C000796262F07F02D2B21A703B6ADB093B6215
:1039D0003B6A7F2BF0D87B6A5A1C7A623A6AD2B271
:1039E0001A707B6AFB60FB68FB610023BB610BE024
:1039F000BB69DAB2FB69591CF96162F07F02D2B28D
:103A00001A70BB69DB09BB61BB697F2BF0D8FB690E
:103A10005A1CFA61BA69D2B21A70FB69FB601A22A9
:103A2000F9683869FFF7D8F8786902F02DFE00BF11
:103A30002837BD4680BD00BFB056002080B584B099
:103A400000AFF860B9607A603B603A68796800203E
:103A5000FEF74CFE3B6818461037BD4680BD80B46B
:103A600083B000AF78607B6800221A6000BF0C371B
:103A7000BD465DF8047B704780B582B000AF7860CA
:103A8000144B01221A707B68002B01D101F010F851
:103A90007B6800221A70104B1A687B685A600F4BC3
:103AA0001A687B689A607B680D4ADA607B68B72287
:103AB0001A617B680B4A5A6100F0F6F900F0ECF9E4
:103AC000786800F04BFF7B681B78002B0837BD46F9
:103AD00080BD00BF93570020C03301000C360100A9
:103AE000E00C01005C0D010080B400AF034B1B68CB
:103AF0001846BD465DF8047B704700BF9457002010
:103B000080B485B000AF03460A46FB711346BB7113
:103B10000023FB73FB79162B63D801A252F823F024
:103B20007D3B0000833B0000893B0000893B000097
:103B3000893B00008F3B0000953B0000953B000057
:103B4000953B00009B3B0000A13B0000A73B000011
:103B5000AD3B0000B33B0000B33B0000B33B0000B3
:103B6000C53B0000CB3B0000D13B0000D73B000031
:103B7000B93B0000BF3B0000DD3B00000123FB73AD
:103B800030E00123FB732DE00123FB732AE00123C6
:103B9000FB7327E00123FB7324E00123FB7321E087
:103BA0000123FB731EE00123FB731BE00123FB7366
:103BB00018E00123FB7315E00123FB7312E00123DE
:103BC000FB730FE00123FB730CE00123FB7309E09F
:103BD0000123FB7306E00123FB7303E00123FB7366
:103BE00000E000BFFB7B18461437BD465DF8047B40
:103BF000704700BF80B58EB000AFF860B9607A60E2
:103C00000023FB627B68002B01D100F051FF274BA2
:103C10001B68002B08D1786800F04AF87B681B7895
:103C2000002B01D0FB6A3DE0204B1B6879681846E9
:103C300000F042FA38637B681B78002B01D0FB6AE6
:103C400030E03B6B7A68F968184606F015FD7B6832
:103C50001B78002B17D1BB68002B09D0BB681B78E1
:103C600003F00103002B03D0012387F8373002E073
:103C7000002387F837303B6B97F8372083F83420E0
:103C80003B6BFB620DE0094B1B68184607F1140300
:103C90001A46396B00F006FB3B7D002B01D000F08B
:103CA00007FFFB6A18463837BD4680BD985700208D
:103CB00080B588B004AF78607B68002B01D100F03C
:103CC000F7FE7B6800221A705E4B1A687B685A60A8
:103CD0005D4B1A687B689A607B685C4ADA607B6837
:103CE0004FF40D621A617B68594A5A61786804F092
:103CF000ABFC7B681B78002B03D0786804F02EFDAA
:103D00009DE0544B1B68002B40F09580FFF7ECFEC4
:103D1000F8607B68B422F9684F4800F053F9024616
:103D20004C4B1A607B681B78002B03D0786804F03A
:103D300015FD84E0474B1B6819467B6803934FF0E1
:103D4000FF33029300230193042300933823FA687E
:103D5000424800F05FF97B681B78002B03D078683D
:103D600004F0FCFC6BE03B4B1B6803F124017B6817
:103D700003934FF0FF330293002301930423009336
:103D80002C23FA68364800F045F97B681B78002B35
:103D900003D0786804F0E2FC51E02E4B1B6803F17D
:103DA0006C017B6803934FF0FF3302930023019370
:103DB000042300933823FA682A4800F02BF97B6823
:103DC0001B78002B03D0786804F0C8FC37E0214B47
:103DD0001B6803F190017B6803934FF0FF3302935C
:103DE00000230193042300930123FA681E4800F086
:103DF00011F97B681B78002B03D0786804F0AEFCC7
:103E00001DE0144B1B6803F148017B6803934FF0DE
:103E1000FF33029300230193042300932423FA68C1
:103E2000124800F0F7F87B681B78002B03D0786805
:103E300004F094FC03E0786804F090FC00BF1037B5
:103E4000BD4680BDC03301000C360100680D010085
:103E5000700E010098570020080E01001C0E010092
:103E60002C0E01003C0E01004C0E0100600E010002
:103E700080B584B000AF786002F014FCF860054AA9
:103E80007B681360F86802F01DFC00BF1037BD4668
:103E900080BD00BF9C57002080B500AF0120FFF718
:103EA000E7FF00BF80BD000080B586B000AF3B4695
:103EB0001946064800F00CF83B78002B01D000F0C2
:103EC000F7FD00BF1837BD4680BD00BF28000020A9
:103ED00080B584B000AF786039603B68002B01D1B9
:103EE00000F0E6FD7B68002B15D13B680A221A70B2
:103EF0002F4B9A6A3B685A602E4B9A6A3B689A60CD
:103F00003B682D4ADA603B6840F2B9221A613B688F
:103F10002A4A5A61FEE702F0C5FBB860284B1B68CD
:103F2000FB601FE0FA687B689A4218D1B86802F01B
:103F3000C9FB3B6815221A701D4B5A6D3B685A60CD
:103F40001C4B5A6D3B689A603B681B4ADA603B68C1
:103F50004FF430721A613B68184A5A6124E0FB68DA
:103F6000DB68FB60FB68002BDCD1154B1A687B68B3
:103F7000DA60134A7B681360B86802F0A3FB3B6801
:103F800000221A700A4B1A683B685A60094B1A687B
:103F90003B689A603B68084ADA603B6840F2CB2293
:103FA0001A613B68054A5A611037BD4680BD00BFA3
:103FB000C03301000C3601007C0E0100F40E01003C
:103FC000909A002080B58AB004AFF860B9607A603A
:103FD0003B60BB687B613B68002B01D100F068FD52
:103FE0007B69002B01D10A4B7B613B680293002364
:103FF00001930123009304237A687969F86800F03B
:10400000F1F938613B6918461837BD4680BD00BFDD
:104010002800002080B58AB004AFF860B9607A60EB
:104020003B607B687B61FB6A002B01D100F040FDA7
:10403000BB68002B15D1FB6A0A221A70194B9A6AC9
:10404000FB6A5A60184B9A6AFB6A9A60FB6A174AC5
:10405000DA60FB6A40F214421A61FB6A144A5A6140
:10406000FEE77B69002B01D1124B7B61BB6800220C
:104070001A70BB680022DA61BB6800221A62FB6A10
:104080000393BB6A02937B6A01933B6A00933B688C
:104090007A69B968F86800F0B9FA00BF1837BD4608
:1040A00080BD00BFC03301000C3601007C0E010052
:1040B000000F01002800002090B58BB004AF78609D
:1040C00039603B68002B01D100F0F2FC7B68002BCB
:1040D00015D13B680A221A706E4B9A6A3B685A6087
:1040E0006D4B9A6A3B689A603B686C4ADA603B6841
:1040F00040F2D7421A613B68694A5A61FEE702F012
:10410000D1FA78617B685B69B3F1FF3F1FD07B68B0
:104110009A697B685B699A4219D3786902F0D2FA8E
:104120003B6818221A705B4B1A6E3B685A605A4BF8
:104130001A6E3B689A603B68584ADA603B6840F206
:10414000E2421A613B68564A5A6100239DE07B684F
:104150009B695A1C7B689A617B681B69002B2DD078
:104160007B681B69FB607B681B7803F00203002BF4
:1041700002D1FB681B6805E07B689B68043BFA681A
:1041800013441B687A681361786902F09BFA3B68F4
:1041900000221A703F4B1A683B685A603E4B1A68FF
:1041A0003B689A603B683D4ADA603B6840F2F14206
:1041B0001A613B683A4A5A61FB6866E0786902F026
:1041C00081FA00233B617B6859687B6898687B684B
:1041D000DC687B681B7803F00103002B03D07B684D
:1041E0005B681B6900E001233A6802920022019299
:1041F000009323460246386900F0F4F8F8603B6803
:104200001B78002B0CD002F04DFA78617B689B691B
:104210005A1E7B689A61786902F054FA002334E0F0
:104220007B68DB69002B2FD07B68DC697B68596871
:104230007B681B6AFA687868A0470346FB72FB7AC2
:10424000012B21D002F02EFA78617B689B695A1EFF
:104250007B689A61786902F035FA3B681A221A7015
:104260000C4B9A6E3B685A600B4B9A6E3B689A6097
:104270003B680A4ADA603B6840F21B521A613B68AD
:10428000074A5A61002300E0FB6818461C37BD4608
:1042900090BD00BFC03301000C3601007C0E010050
:1042A000140F010080B586B000AFF860B9607A6085
:1042B0007B68002B01D100F0FBFBFB68002B15D1C4
:1042C0007B680A221A70434B9A6A7B685A60424B99
:1042D0009A6A7B689A607B68404ADA607B6840F241
:1042E0003D521A617B683E4A5A61FEE7BB68002B6B
:1042F00015D17B680A221A70364B9A6A7B685A601D
:10430000354B9A6A7B689A607B68344ADA607B68CE
:1043100040F23E521A617B68314A5A61FEE702F070
:10432000C1F97861FB689B69002B18D1786902F0AC
:10433000C9F97B6817221A70264BDA6D7B685A60C0
:10434000254BDA6D7B689A607B68244ADA607B686B
:1043500040F247521A617B68214A5A6137E0FB6894
:104360009B695A1EFB689A61786902F0ABF9FB6899
:104370001B7803F00203002B05D0FB689B68043B0D
:10438000BA68134400E0BB683B6102F08BF97861C6
:10439000FB681A693B691A60FB68BA681A61786938
:1043A00002F090F97B6800221A700A4B1A687B6849
:1043B0005A60094B1A687B689A607B68074ADA6022
:1043C0007B6840F257521A617B68054A5A61183778
:1043D000BD4680BDC03301000C3601007C0E0100DB
:1043E000280F010080B588B002AFF860B9607A602C
:1043F0003B607B68002B15D1BB6A08221A70374BD3
:104400001A6ABB6A5A60364B1A6ABB6A9A60BB6A00
:10441000344ADA60BB6A4FF4D9621A61BB6A324A25
:104420005A61FEE73B68002B05D03B685A1E3B688B
:104430001340002B02D03B68002B01D1012300E088
:104440000023002B15D1BB6A08221A70234B1A6A6D
:10445000BB6A5A60224B1A6ABB6A9A60BB6A214ADD
:10446000DA60BB6A40F2CC621A61BB6A1E4A5A61CA
:10447000FEE702F017F97861BB6A01937B6A00934B
:104480003B6A3A687968B86800F030F83861BB6A0E
:104490001B78002B19D0786902F014F9BB6A162238
:1044A0001A700E4B9A6DBB6A5A600D4B9A6DBB6ABF
:1044B0009A60BB6A0B4ADA60BB6A40F2D7621A6143
:1044C000BB6A094A5A61002303E0786902F0FAF8EE
:1044D0003B6918461837BD4680BD00BFC033010098
:1044E0000C3601007C0E01003C0F010080B48BB043
:1044F00000AFF860B9607A603B607B68002B01D048
:104500007B6800E004233A68934238BF13467B621D
:10451000FB689B681A467B6A5B421A40FB689B6893
:1045200019467B6A013B0B40002B01D07B6A00E0FF
:10453000002313443B623A6ABB681A443B685B42FF
:104540001A40396ABB6819443B68013B0B40002B99
:1045500001D03B6800E000231344FB61FB685B680B
:104560001A46FB689B68D31A0133BB61FB689B68E2
:104570001A46FB699B1A7B61BA697B699A421ED213
:104580003B6B002B04D07A69BB69D21A3B6B1A6073
:104590007B6B16221A70194B9A6D7B6B5A60184B05
:1045A0009A6D7B6B9A607B6B164ADA607B6B40F28C
:1045B00022721A617B6B144A5A61002318E0FA696F
:1045C000FB689A607B6B00221A700C4B1A687B6B3D
:1045D0005A600B4B1A687B6B9A607B6B094ADA60F6
:1045E0007B6B4FF4E5621A617B6B074A5A613B6A49
:1045F00018462C37BD465DF8047B7047C033010078
:104600000C3601007C0E0100540F010090B593B0F0
:1046100004AFF860B9607A603B603B68002B15D14D
:104620007B6D08221A70924B1A6A7B6D5A60914B0F
:104630001A6A7B6D9A607B6D8F4ADA607B6D40F2FF
:1046400093721A617B6D8D4A5A61FEE73B6DB3F13F
:10465000FF3F03D0FA6C3B6D9A4201D8012300E082
:104660000023002B15D17B6D08221A70804B1A6A2B
:104670007B6D5A607F4B1A6A7B6D9A607B6D7E4AB8
:10468000DA607B6D40F297721A617B6D7B4A5A61EA
:10469000FEE7BB6C002B08D0BB6C5A1EBB6C1340F2
:1046A000002B02D1BB6C032B02D8BB6C002B01D1B9
:1046B000012300E00023002B15D17B6D08221A7026
:1046C0006B4B1A6A7B6D5A606A4B1A6A7B6D9A60F3
:1046D0007B6D694ADA607B6D40F29C721A617B6D7A
:1046E000664A5A61FEE7BB6C002B01D0BB6C00E050
:1046F0000423FB61BB681B7803F00203002B10D07E
:104700003B6823F003033A6802F00302002A01D158
:10471000002200E0042213443B633B6B04333B6301
:1047200004E03B68042B38BF04233B63FB6C002B85
:1047300000F0DF80BB681B7803F00103002B02D17F
:10474000FB69BB6206E07B681B69FA69934238BF6C
:104750001346BB62BB6A5A423B6B1A40BB6A591E86
:104760003B6B0B40002B01D0BB6A00E000231344DD
:10477000BB61BB69FA6C02FB03F37B623A6BBB69FA
:10478000D31A7A6A13447B62BB681B7803F0010377
:10479000002B11D07B681B695A427B6A1A407B68E8
:1047A0001B69591E7B6A0B40002B02D07B681B697A
:1047B00000E0002313447B627B6D0293002301938E
:1047C00001230093BB6A7A6A7968F868FFF70AFEEA
:1047D00078637B6D1B78002B40F0B380BB687A6BED
:1047E0001A61BB681B7803F00203002B02D17B6BBC
:1047F0003B620EE03B6823F003033A6802F00302D9
:10480000002A01D1002200E0042213447A6B1344F1
:104810003B620123FB623EE03B6A796BBA690A4462
:104820001A60BB68DB69002B2AD0BB68DC69BB68F7
:104830001B6A7A6B7968B868A0470346BB75BB7D75
:10484000012B1DD07B6D1A221A70094B9A6E7B6D5D
:104850005A60084B9A6E7B6D9A607B6D064ADA60EF
:104860007B6D40F2D9721A617B6D044A5A6169E02E
:10487000C03301000C3601007C0E01006C0F0100FA
:104880003A6ABB6913443B627A6BBB6913447B632E
:10489000FB6A0133FB62FA6AFB6C9A42BCD33B6A47
:1048A00000221A60BB68DB69002B25D0BB68DC697D
:1048B000BB681B6A7A6B7968B868A0470346FB75CA
:1048C000FB7D012B18D07B6D1A221A701F4B9A6E3C
:1048D0007B6D5A601E4B9A6E7B6D9A607B6D1D4A94
:1048E000DA607B6D40F2E9721A617B6D1A4A5A6197
:1048F00028E0BB6800221A61BB687A685A60BB680E
:104900003A6B9A60BB68FA69DA60BB683A6D5A61C3
:10491000BB6800229A617B6D00221A700B4B1A68EB
:104920007B6D5A600A4B1A687B6D9A607B6D094AF1
:10493000DA607B6D40F2FC721A617B6D064A5A6147
:1049400000E000BF3C37BD4690BD00BFC033010052
:104950000C3601007C0E01006C0F010090B589B08F
:1049600004AF78607B68002B01D100F0A1F87B6870
:1049700000221A70424B1A687B685A60414B1A68D1
:104980007B689A607B68404ADA607B68C4221A615F
:104990007B683E4A5A613E4B5B68002B6DD000211C
:1049A0000220FFF7ADF80346FB7300210320FFF759
:1049B000A7F803461A46FB7B1340FB730021042033
:1049C000FFF79EF803461A46FB7B1340FB73FB7B05
:1049D000012B14D07B6806221A70294B9A697B68D8
:1049E0005A60284B9A697B689A607B68264ADA602D
:1049F0007B68CA221A617B68244A5A61FEE7FFF786
:104A000073F8B8607B682C22B9682248FFF7DAFA9D
:104A10000246214B1A607B681B78002B28D11E4B65
:104A20001B68181D1A4B1B68194A52687968039154
:104A300002920193042300930823BA6801461748A1
:104A4000FFF7E8FA7B681B78002B13D1124B1C6828
:104A50007A6800211248FFF7CDF8A0627B681B78C6
:104A6000002B09D10C4B1B681846FEF7F8FF04E039
:104A700000BF02E000BF00E000BF1437BD4690BD9C
:104A8000C03301000C360100880F010060100100E6
:104A90003C00002010100100A0570020241001004D
:104AA0003C10010080B500AF00F064F800BF80BD8D
:104AB00080B400AFFEE780B582B000AFFBF7CEFB5D
:104AC00078607B6818460837BD4680BD80B584B0E5
:104AD00000AF78607B68002B01D1FFF7E9FF184B2E
:104AE0001B68FB60FB68002B01D0002200E009225C
:104AF0007B681A70FB68002B01D0002300E00923BB
:104B0000104A52F823207B685A60FB68002B01D0C2
:104B1000002300E009230C4A52F823207B689A60A6
:104B20007B680A4ADA607B684FF4F9721A617B6825
:104B3000074A5A61FB6818461037BD4680BD00BF62
:104B400094BA0020C03301000C360100583801002F
:104B5000CC38010080B483B000AF7860044A7B6831
:104B6000136000BF0C37BD465DF8047B704700BF83
:104B700094BA002080B500AF034B00221A60FBF707
:104B80004BFB00BF80BD00BF94BA002080B487B04B
:104B900000AFF860B9607A60FB6803F10473DA0073
:104BA000BB6813449B007B617B697A681A6000BF15
:104BB0001C37BD465DF8047B704780B485B000AFFC
:104BC000786039607B6803F1C063FB60FB683A681A
:104BD0001A6000BF1437BD465DF8047B704780B48F
:104BE00085B000AF786039607B6803F18063FB605B
:104BF000FB683A681A6000BF1437BD465DF8047B55
:104C0000704780B584B000AFF860B9607A60B96869
:104C1000F868FFF7E4FF7968F868FFF7CEFF00BF98
:104C20001037BD4680BD000080B582B000AF78600F
:104C300039607B68B3F1804F07D07B68274A934285
:104C400003D0A821264800F0AFF83B681B693F2B32
:104C500003D9BC21224800F0A7F83B68DB683F2B52
:104C600003D9BD211E4800F09FF83B685B683F2BCD
:104C700003D9BF211A4800F097F83B681B78DB077F
:104C80001A463B685B681B06134343F400427B688B
:104C90001A603B68DB681B043A68127A1A437B6827
:104CA0009A623B681B691B043A68527A1A437B6814
:104CB000DA623B689B7A1B0743F0806343F47D43D1
:104CC0007A68536078683B681B7D1A460021FFF7BD
:104CD0005DFF00BF0837BD4680BD00BF0004004037
:104CE000E038010080B582B000AF78600B46FB7001
:104CF0007B68B3F1804F07D07B68094A934203D0A9
:104D0000FB21084800F050F87B680433FA78FF2153
:104D10001846FFF776FF00BF0837BD4680BD00BFCD
:104D200000040040E038010080B582B000AF786038
:104D30007B68B3F1804F08D07B68094A934204D066
:104D400040F22111074800F02FF87B681B6823F020
:104D500001027B681A6000BF0837BD4680BD00BFF6
:104D600000040040E038010080B582B000AF7860F8
:104D70007B68B3F1804F08D07B68094A934204D026
:104D80004FF49A71074800F00FF87B681B6843F0F6
:104D900001027B681A6000BF0837BD4680BD00BFB6
:104DA00000040040E038010080B483B000AF7860B8
:104DB0003960FEE780B487B000AFF860B9607A6010
:104DC000FB6803F10473DA00BB6813449B007B614A
:104DD0007B697A681A6000BF1C37BD465DF8047BAA
:104DE000704780B485B000AF786039607B6803F1AC
:104DF0000473DA003B6813449B00FB60FB681B688C
:104E000018461437BD465DF8047B704780B582B004
:104E100000AF78607B681F2B04D94FF4967105486A
:104E2000FFF7C2FF01227B6802FA03F31846083736
:104E3000BD4680BDF438010080B584B000AF786015
:104E40007B68B3F5004F04D340F696310E48FFF768
:104E5000ABFF7B680133B3FA83F3DBB2C3F11F030B
:104E6000FB60F868FFF7D2FF0346013B7A689A427D
:104E700004D040F69C310448FFF796FFFB681846C3
:104E80001037BD4680BD00BF5C39010080B400AF63
:104E9000064B1B6803F04003002B01D1012300E007
:104EA00000231846BD465DF8047B70473C300E4039
:104EB00080B500AFFFF7EAFF034683F00103DBB2E2
:104EC000002B08D100BF12210448FFF78AFF0346D8
:104ED000002BF8D100E000BF80BD00BF04300E40C1
:104EE00080B500AFFFF7E4FF034B5B681B0C03F0DA
:104EF0000303DBB2184680BD00300E4080B584B09D
:104F000000AF78600123FB607B68124A934204D8AB
:104F10000023FB600023BB6008E07B680E4A9342DD
:104F200002D80123BB6001E00223BB60FA681021B4
:104F30000A48FFF73FFF094BD3F8003123F0807296
:104F4000BB681B0605491343C1F8003100BF103789
:104F5000BD4680BD0048E8010090D00300400E40EF
:104F600080B483B000AF054B1B687B607B6818463C
:104F70000C37BD465DF8047B704700BF440000203D
:104F800080B582B000AFFBF763FA7860064BD3F8C8
:104F900000311B0A03F01F0301337A6802FB03F39D
:104FA00018460837BD4680BD00400E4080B582B02F
:104FB00000AF0F4800F0ECFD0346FB70FB78072BB9
:104FC00005D0092B07D1FBF743FA78600BE0FFF718
:104FD000C7FF786007E000237B6040F61251054868
:104FE000FFF7E2FE00BF7B6818460837BD4680BD6C
:104FF00006000E00C039010080B584B000AF7860B3
:105000007B68002B1CD1204800F0C2FD0346FB72D8
:1050100000BFFB7A013B072B28D801A252F823F0EE
:105020004F5000006D5000006D5000005D500000BA
:105030006D5000006D50000055500000655000009C
:1050400040F632511148FFF7AFFE002317E000236E
:10505000FB6013E0FFF784FFF8600FE0FBF73CFA1A
:10506000F8600BE0FFF78CFFF86007E00023FB60BF
:1050700040F649510548FFF797FE00BFFB68184608
:105080001037BD4680BD00BFB8003200C0390100F6
:1050900080B584B000AF78603960204B5B6803F066
:1050A0004073FB600023BB6012E01D4ABB68DB005D
:1050B00013441A793B68DBB29A4206D1184ABB689E
:1050C00052F833307A689A4206D9BB680133BB6024
:1050D000BB68042BE9D900E000BFBB68052B07D1F2
:1050E0000323FB604FF465610E48FFF75DFE05E0AA
:1050F0000B4ABB68DB0013445B79FB60FB681B0653
:10510000FB60064B5B6823F040720449FB68134365
:105110004B6000BF1037BD4680BD00BF00000E4091
:10512000243A0100C039010080B582B000AF0E4BB7
:105130001B6C002B14BF01230023FB710A4B41F6AB
:1051400071321A64FBF77AF9034600211846FFF71B
:105150009FFFFB79002B02D0034B00221A6400BF93
:105160000837BD4680BD00BF00000E4080B584B04A
:1051700000AF786039600C4B1B6C002B14BF01230F
:105180000023FB73084B41F671321A643968786862
:10519000FFF77EFFFB7B002B02D0034B00221A643B
:1051A00000BF1037BD4680BD00000E4080B487B000
:1051B00000AF78600F237B617B6803333B617B69C1
:1051C000FB60FA683B69934228BF1346BB60BB682B
:1051D0001B07BB60BB6818461C37BD465DF8047BE7
:1051E0007047000080B400AF044B5B6A1B0903F0FA
:1051F00003031846BD465DF8047B704700400E402F
:1052000080B483B000AF7860074B5B6A23F0300254
:105210007B681B01044913434B6200BF0C37BD463A
:105220005DF8047B704700BF00400E4090B585B02C
:1052300000AF78600023BB607B683C4A93420BD090
:105240003B4A934208D03B4A934205D04FF47561E4
:105250003948FFF7A9FD00E000BF786800F098FC2E
:105260000346FB607B68314A93420CD0304A93423C
:1052700010D0304A934214D1304BD3F8803003F031
:105280000703FB6013E02D4BD3F8843003F00703D2
:10529000FB600CE0294BD3F8883003F00703FB6078
:1052A00005E040F67F712448FFF77EFD00BFFB68F4
:1052B000042B2ED801A252F823F000BF0D5300009A
:1052C000D1520000D9520000E9520000E152000022
:1052D000FBF724F9B86024E0FBF732F9B86020E06E
:1052E000FBF725F9B8601CE0FBF7B2F80446134B56
:1052F000D3F800311B0E03F0010301331846FFF70A
:1053000085FD0346B4FBF3F3BB600AE00023BB60FA
:1053100007E00023BB6040F6D7710748FFF744FD64
:1053200000BFBB6818461437BD4690BD030020007F
:105330000500240002001E00C039010000400E409C
:1053400080B483B000AF78600A4BD3F8443103F0E7
:105350000103002B08D100BF064BD3F840217B6826
:105360001340002BF8D100E000BF0C37BD465DF8BC
:10537000047B704700400E4080B400AF00BFBD46C4
:105380005DF8047B704780B400AF00BFBD465DF898
:10539000047B704780B582B000AF7860786800F019
:1053A0008DF90346013318460837BD4680BD80B5E8
:1053B00082B000AF786039603B68013B194678687D
:1053C00000F054FA00BF0837BD4680BD80B586B0F6
:1053D00000AF78600B46FB7000233B617B681B0AC3
:1053E00003F00F03013B092B32D801A252F823F03E
:1053F000195400002554000051540000515400007D
:105400001F5400002B54000035540000515400007C
:105410003F5400004B5400001A4B7B611EE01A4BB6
:105420007B611BE0194B7B6118E0194B7B61012309
:105430003B6113E0174B7B6110233B610EE0164B81
:105440007B614FF480333B6108E0144B7B6105E0E6
:1054500041F2DB311248FFF7A7FC10E07B681B0B21
:1054600003F01F03FB603B69002B02D03869FFF794
:1054700067FFFB781A46F9687869FFF79BFC1837D5
:10548000BD4680BD00400E40B0400E40C0400E40C2
:10549000E0400E40E8400E40F0400E4050410E40CB
:1054A000C039010080B584B000AF78607B6803F438
:1054B0007813B3F5A01F7DD0B3F5A01F1AD8B3F5AC
:1054C000202F50D0B3F5202F08D8B3F5003F4ED091
:1054D000B3F5802F38D0002B32D0D8E0B3F5602F51
:1054E00000F0C880B3F5801F00F0C880B3F5402FEE
:1054F0004CD0CCE0B3F5001F00F08B80B3F5001F5B
:105500000AD8B3F5D01F00F08980B3F5F01F4CD056
:10551000B3F5B01F5CD0BAE0B3F5381F6AD0B3F56D
:10552000381F04D8B3F5101F00F09F80AFE0B3F52B
:10553000401F00F08680B3F5481F00F0A380A6E06E
:10554000FAF786FFF860AAE0FAF782FFF860564B98
:10555000D3F80C311B0AC3F308030133FA68B2FB1A
:10556000F3F3FB609BE0FAF773FFF86097E0FAF75C
:105570006FFFF8604C4BD3F808311B0AC3F30803E4
:105580000133FA68B2FBF3F3FB6088E0FAF760FFDF
:10559000F860454BD3F814311B0A03F01F030133A5
:1055A000FA68B2FBF3F3FB6079E04048FFF73EFE98
:1055B000F86074E03E48FFF739FEF8603A4BD3F8E4
:1055C000303103F00303FA6822FA03F3FB6066E06C
:1055D0003648FFF72BFEF860334BD3F8203103F049
:1055E0000F031846FFF712FC0246FB68B3FBF2F309
:1055F000FB6054E02D48FFF719FEF8602A4BD3F802
:1056000020311B0903F00303FA6822FA03F3FB605D
:1056100045E02848FFF70AFEF86040E02548FFF71C
:1056200005FEF860204BD3F828311B0903F0030373
:105630001846FFF7EBFB0246FB68B3FBF2F3FB6097
:105640002DE01C48FFF7F2FDF860174BD3F8283126
:105650001B0A03F0030304331846FFF7D7FB024687
:10566000FB68B3FBF2F3FB6019E01148FFF7DEFDC6
:10567000F86014E0FFF79AFCF86010E0FFF770FCA8
:10568000F8600CE00020FFF7B7FCF86007E00023AB
:10569000FB6041F201510848FFF786FB00BFFB6841
:1056A00018461037BD4680BD00400E4002001E0067
:1056B0000500240003002000C039010080B584B03B
:1056C00000AF78607B681B0903F00F03BB60BB6809
:1056D000013B092B00F2AF8001A252F823F000BF7A
:1056E00009570000195700002957000039570000DA
:1056F000375800003758000049570000595700003C
:10570000B15700000F580000514BD3F800311B0A6D
:1057100003F01F03FB6096E04D4BD3F814311B0AD6
:1057200003F01F03FB608EE0494BD3F800311B0EE2
:1057300003F00103FB6086E0454BD3F80C311B0AF4
:10574000C3F30803FB607EE0414BD3F808311B0A2A
:10575000C3F30803FB6076E07B683E4A934203D0C4
:105760003D4A93420DD01AE0394BD3F8203103F073
:105770000F03FB60F868FFF749FB0346013BFB6042
:1057800015E0334BD3F820311B0903F00303FB6012
:10579000F868FFF73BFB0346013BFB6007E0002393
:1057A000FB6041F274512D48FFF7FEFA00BF4AE05A
:1057B0007B682B4A934203D02A4A93420ED01DE0C5
:1057C000234BD3F828311B0903F00303FB60F8686F
:1057D000FFF71CFB0346013BFB6017E01C4BD3F8B3
:1057E00028311B0A03F00303FB60FB6804331846EF
:1057F000FFF70CFB0346013BFB6007E00023FB6067
:1058000041F298511548FFF7CFFA00BF1BE07B68C3
:10581000154A934206D10E4BD3F8303103F00303FF
:10582000FB6007E00023FB6041F2A7510B48FFF744
:10583000BBFA00BF07E00023FB6041F2CC510748F0
:10584000FFF7B2FA00BFFB6818461037BD4680BDAF
:1058500000400E408006160080162E00C039010060
:1058600090171A0090273000A009140080B584B06A
:1058700000AF786039607B681B0903F00F03FB60A1
:10588000FB68013B092B00F2678101A252F823F06B
:10589000B958000015590000595B00003D5900003F
:1058A000595B0000595B00006B590000C5590000AE
:1058B000815A0000155B00003B681F2B04D941F2A0
:1058C000F451AA48FFF770FAFFF72EFCA848FFF73B
:1058D00015FBFFF751FDA74BD3F8003123F4F85225
:1058E0003B681B02A3491343C1F80031FAF786FD58
:1058F000B860FFF7F5FA03461946B868FFF736FCBB
:105900009D48FFF7CFFD03461846FFF7F7FAFFF76C
:105910003AFD27E13B681F2B04D941F20A61934805
:10592000FFF742FA934BD3F8143123F4F8523B6853
:105930001B0290491343C1F8143113E13B68B3F5DE
:10594000007F04D341F211618848FFF72DFA894B9B
:10595000D3F80C3123F4FF3323F480733A68120236
:1059600084491343C1F80C31FCE03B68B3F5007F78
:1059700004D341F227617D48FFF716FAFFF7D4FB05
:105980007B48FFF7BBFA7B4BD3F8083123F4FF3396
:1059900023F480733A68120276491343C1F8083140
:1059A000FAF72CFDB860FFF79BFA03461946B86872
:1059B000FFF7DCFB7048FFF775FD03461846FFF75D
:1059C0009DFACFE07B686D4A93421CD06C4A9342AB
:1059D00034D06C4A93424CD13B68022B04D941F23B
:1059E0004C616248FFF7E0F94FF48020FFF7A8FC14
:1059F000604BD3F8303123F003025E493B68134318
:105A0000C1F830313BE03B68B3F5004F04D941F2B7
:105A100069615648FFF7C8F93868FFF70DFA386032
:105A20000420FFF78DFC534BD3F8203123F00F02F5
:105A300050493B681343C1F8203120E03B68082BF4
:105A400004D941F287614948FFF7AEF93868FFF79A
:105A5000F3F938600420FFF773FC464BD3F820318C
:105A600023F030023B681B0142491343C1F8203147
:105A700005E041F2A5613D48FFF796F900BF71E0EE
:105A80007B68414A934203D0404A93421BD03AE09C
:105A90003B68082B04D941F2AE613448FFF784F922
:105AA0003868FFF7C9F938604020FFF749FC314BEF
:105AB000D3F8283123F030023B681B012D491343F2
:105AC000C1F8283125E03B687F2B02D83B680E2BBC
:105AD00004D841F2CC612548FFF766F93868FFF732
